{
  "contractName": "BicycleRegistry",
  "abi": [
    {
      "constant": true,
      "inputs": [
        {
          "name": "interfaceId",
          "type": "bytes4"
        }
      ],
      "name": "supportsInterface",
      "outputs": [
        {
          "name": "",
          "type": "bool"
        }
      ],
      "payable": false,
      "stateMutability": "view",
      "type": "function",
      "signature": "0x01ffc9a7"
    },
    {
      "constant": true,
      "inputs": [],
      "name": "name",
      "outputs": [
        {
          "name": "",
          "type": "string"
        }
      ],
      "payable": false,
      "stateMutability": "view",
      "type": "function",
      "signature": "0x06fdde03"
    },
    {
      "constant": true,
      "inputs": [
        {
          "name": "tokenId",
          "type": "uint256"
        }
      ],
      "name": "getApproved",
      "outputs": [
        {
          "name": "",
          "type": "address"
        }
      ],
      "payable": false,
      "stateMutability": "view",
      "type": "function",
      "signature": "0x081812fc"
    },
    {
      "constant": false,
      "inputs": [
        {
          "name": "to",
          "type": "address"
        },
        {
          "name": "tokenId",
          "type": "uint256"
        }
      ],
      "name": "approve",
      "outputs": [],
      "payable": false,
      "stateMutability": "nonpayable",
      "type": "function",
      "signature": "0x095ea7b3"
    },
    {
      "constant": true,
      "inputs": [],
      "name": "totalSupply",
      "outputs": [
        {
          "name": "",
          "type": "uint256"
        }
      ],
      "payable": false,
      "stateMutability": "view",
      "type": "function",
      "signature": "0x18160ddd"
    },
    {
      "constant": false,
      "inputs": [
        {
          "name": "from",
          "type": "address"
        },
        {
          "name": "to",
          "type": "address"
        },
        {
          "name": "tokenId",
          "type": "uint256"
        }
      ],
      "name": "transferFrom",
      "outputs": [],
      "payable": false,
      "stateMutability": "nonpayable",
      "type": "function",
      "signature": "0x23b872dd"
    },
    {
      "constant": true,
      "inputs": [
        {
          "name": "owner",
          "type": "address"
        },
        {
          "name": "index",
          "type": "uint256"
        }
      ],
      "name": "tokenOfOwnerByIndex",
      "outputs": [
        {
          "name": "",
          "type": "uint256"
        }
      ],
      "payable": false,
      "stateMutability": "view",
      "type": "function",
      "signature": "0x2f745c59"
    },
    {
      "constant": false,
      "inputs": [
        {
          "name": "from",
          "type": "address"
        },
        {
          "name": "to",
          "type": "address"
        },
        {
          "name": "tokenId",
          "type": "uint256"
        }
      ],
      "name": "safeTransferFrom",
      "outputs": [],
      "payable": false,
      "stateMutability": "nonpayable",
      "type": "function",
      "signature": "0x42842e0e"
    },
    {
      "constant": true,
      "inputs": [
        {
          "name": "index",
          "type": "uint256"
        }
      ],
      "name": "tokenByIndex",
      "outputs": [
        {
          "name": "",
          "type": "uint256"
        }
      ],
      "payable": false,
      "stateMutability": "view",
      "type": "function",
      "signature": "0x4f6ccce7"
    },
    {
      "constant": true,
      "inputs": [
        {
          "name": "tokenId",
          "type": "uint256"
        }
      ],
      "name": "ownerOf",
      "outputs": [
        {
          "name": "",
          "type": "address"
        }
      ],
      "payable": false,
      "stateMutability": "view",
      "type": "function",
      "signature": "0x6352211e"
    },
    {
      "constant": true,
      "inputs": [
        {
          "name": "owner",
          "type": "address"
        }
      ],
      "name": "balanceOf",
      "outputs": [
        {
          "name": "",
          "type": "uint256"
        }
      ],
      "payable": false,
      "stateMutability": "view",
      "type": "function",
      "signature": "0x70a08231"
    },
    {
      "constant": false,
      "inputs": [],
      "name": "renounceOwnership",
      "outputs": [],
      "payable": false,
      "stateMutability": "nonpayable",
      "type": "function",
      "signature": "0x715018a6"
    },
    {
      "constant": true,
      "inputs": [],
      "name": "owner",
      "outputs": [
        {
          "name": "",
          "type": "address"
        }
      ],
      "payable": false,
      "stateMutability": "view",
      "type": "function",
      "signature": "0x8da5cb5b"
    },
    {
      "constant": true,
      "inputs": [],
      "name": "isOwner",
      "outputs": [
        {
          "name": "",
          "type": "bool"
        }
      ],
      "payable": false,
      "stateMutability": "view",
      "type": "function",
      "signature": "0x8f32d59b"
    },
    {
      "constant": true,
      "inputs": [],
      "name": "symbol",
      "outputs": [
        {
          "name": "",
          "type": "string"
        }
      ],
      "payable": false,
      "stateMutability": "view",
      "type": "function",
      "signature": "0x95d89b41"
    },
    {
      "constant": false,
      "inputs": [
        {
          "name": "to",
          "type": "address"
        },
        {
          "name": "approved",
          "type": "bool"
        }
      ],
      "name": "setApprovalForAll",
      "outputs": [],
      "payable": false,
      "stateMutability": "nonpayable",
      "type": "function",
      "signature": "0xa22cb465"
    },
    {
      "constant": false,
      "inputs": [
        {
          "name": "from",
          "type": "address"
        },
        {
          "name": "to",
          "type": "address"
        },
        {
          "name": "tokenId",
          "type": "uint256"
        },
        {
          "name": "_data",
          "type": "bytes"
        }
      ],
      "name": "safeTransferFrom",
      "outputs": [],
      "payable": false,
      "stateMutability": "nonpayable",
      "type": "function",
      "signature": "0xb88d4fde"
    },
    {
      "constant": true,
      "inputs": [
        {
          "name": "tokenId",
          "type": "uint256"
        }
      ],
      "name": "tokenURI",
      "outputs": [
        {
          "name": "",
          "type": "string"
        }
      ],
      "payable": false,
      "stateMutability": "view",
      "type": "function",
      "signature": "0xc87b56dd"
    },
    {
      "constant": true,
      "inputs": [
        {
          "name": "_tokenOwner",
          "type": "address"
        }
      ],
      "name": "getTokenIds",
      "outputs": [
        {
          "name": "",
          "type": "uint256[]"
        }
      ],
      "payable": false,
      "stateMutability": "view",
      "type": "function",
      "signature": "0xd004b036"
    },
    {
      "constant": true,
      "inputs": [
        {
          "name": "owner",
          "type": "address"
        },
        {
          "name": "operator",
          "type": "address"
        }
      ],
      "name": "isApprovedForAll",
      "outputs": [
        {
          "name": "",
          "type": "bool"
        }
      ],
      "payable": false,
      "stateMutability": "view",
      "type": "function",
      "signature": "0xe985e9c5"
    },
    {
      "constant": false,
      "inputs": [
        {
          "name": "newOwner",
          "type": "address"
        }
      ],
      "name": "transferOwnership",
      "outputs": [],
      "payable": false,
      "stateMutability": "nonpayable",
      "type": "function",
      "signature": "0xf2fde38b"
    },
    {
      "inputs": [],
      "payable": false,
      "stateMutability": "nonpayable",
      "type": "constructor",
      "signature": "constructor"
    },
    {
      "anonymous": false,
      "inputs": [
        {
          "indexed": true,
          "name": "owner",
          "type": "address"
        },
        {
          "indexed": false,
          "name": "tokenId",
          "type": "uint256"
        }
      ],
      "name": "BicycleRegisterd",
      "type": "event",
      "signature": "0x759bfa869f6fdff899bc9c33192f8cd4dd448a5ee0b8e14e03bfbf482de825f2"
    },
    {
      "anonymous": false,
      "inputs": [
        {
          "indexed": false,
          "name": "tokenId",
          "type": "uint256"
        }
      ],
      "name": "BicycleStateChanged",
      "type": "event",
      "signature": "0x338ba04f9156b28bf628c701da0005a03bc76af59b37f1211027a34161eaec07"
    },
    {
      "anonymous": false,
      "inputs": [
        {
          "indexed": true,
          "name": "previousOwner",
          "type": "address"
        },
        {
          "indexed": true,
          "name": "newOwner",
          "type": "address"
        }
      ],
      "name": "OwnershipTransferred",
      "type": "event",
      "signature": "0x8be0079c531659141344cd1fd0a4f28419497f9722a3daafe3b4186f6b6457e0"
    },
    {
      "anonymous": false,
      "inputs": [
        {
          "indexed": true,
          "name": "from",
          "type": "address"
        },
        {
          "indexed": true,
          "name": "to",
          "type": "address"
        },
        {
          "indexed": true,
          "name": "tokenId",
          "type": "uint256"
        }
      ],
      "name": "Transfer",
      "type": "event",
      "signature": "0xddf252ad1be2c89b69c2b068fc378daa952ba7f163c4a11628f55a4df523b3ef"
    },
    {
      "anonymous": false,
      "inputs": [
        {
          "indexed": true,
          "name": "owner",
          "type": "address"
        },
        {
          "indexed": true,
          "name": "approved",
          "type": "address"
        },
        {
          "indexed": true,
          "name": "tokenId",
          "type": "uint256"
        }
      ],
      "name": "Approval",
      "type": "event",
      "signature": "0x8c5be1e5ebec7d5bd14f71427d1e84f3dd0314c0f7b2291e5b200ac8c7c3b925"
    },
    {
      "anonymous": false,
      "inputs": [
        {
          "indexed": true,
          "name": "owner",
          "type": "address"
        },
        {
          "indexed": true,
          "name": "operator",
          "type": "address"
        },
        {
          "indexed": false,
          "name": "approved",
          "type": "bool"
        }
      ],
      "name": "ApprovalForAll",
      "type": "event",
      "signature": "0x17307eab39ab6107e8899845ad3d59bd9653f200f220920489ca2b5937696c31"
    },
    {
      "constant": false,
      "inputs": [
        {
          "name": "_vendor",
          "type": "string"
        },
        {
          "name": "_serialNumber",
          "type": "string"
        },
        {
          "name": "_frameNumber",
          "type": "string"
        },
        {
          "name": "_ipfsImageHash",
          "type": "string"
        }
      ],
      "name": "registerBicycle",
      "outputs": [],
      "payable": true,
      "stateMutability": "payable",
      "type": "function",
      "signature": "0x9b1359bd"
    },
    {
      "constant": false,
      "inputs": [
        {
          "name": "_vendor",
          "type": "string"
        },
        {
          "name": "_serialNumber",
          "type": "string"
        },
        {
          "name": "_frameNumber",
          "type": "string"
        },
        {
          "name": "_ipfsImageHash",
          "type": "string"
        },
        {
          "name": "_for",
          "type": "address"
        }
      ],
      "name": "registerBicycleFor",
      "outputs": [],
      "payable": true,
      "stateMutability": "payable",
      "type": "function",
      "signature": "0x13677d9b"
    },
    {
      "constant": true,
      "inputs": [
        {
          "name": "_vendor",
          "type": "string"
        },
        {
          "name": "_serialNumber",
          "type": "string"
        },
        {
          "name": "_frameNumber",
          "type": "string"
        }
      ],
      "name": "computeUniqueId",
      "outputs": [
        {
          "name": "",
          "type": "uint256"
        }
      ],
      "payable": false,
      "stateMutability": "pure",
      "type": "function",
      "signature": "0x08c3febe"
    },
    {
      "constant": true,
      "inputs": [
        {
          "name": "_vendor",
          "type": "string"
        },
        {
          "name": "_serialNumber",
          "type": "string"
        },
        {
          "name": "_frameNumber",
          "type": "string"
        }
      ],
      "name": "lookUpBicycle",
      "outputs": [
        {
          "name": "vendor_",
          "type": "string"
        },
        {
          "name": "serialNumber_",
          "type": "string"
        },
        {
          "name": "frameNumber_",
          "type": "string"
        },
        {
          "name": "state_",
          "type": "int256"
        },
        {
          "name": "ipfsImageHash_",
          "type": "string"
        },
        {
          "name": "uniqueId_",
          "type": "uint256"
        }
      ],
      "payable": false,
      "stateMutability": "view",
      "type": "function",
      "signature": "0xd71584ad"
    },
    {
      "constant": true,
      "inputs": [
        {
          "name": "_uniqueId",
          "type": "uint256"
        }
      ],
      "name": "getBicycle",
      "outputs": [
        {
          "name": "vendor_",
          "type": "string"
        },
        {
          "name": "serialNumber_",
          "type": "string"
        },
        {
          "name": "frameNumber_",
          "type": "string"
        },
        {
          "name": "state_",
          "type": "int256"
        },
        {
          "name": "ipfsImageHash_",
          "type": "string"
        },
        {
          "name": "uniqueId_",
          "type": "uint256"
        }
      ],
      "payable": false,
      "stateMutability": "view",
      "type": "function",
      "signature": "0x0f4ebd5b"
    },
    {
      "constant": false,
      "inputs": [
        {
          "name": "newPrice",
          "type": "uint256"
        }
      ],
      "name": "setCurrentRegistrationPrice",
      "outputs": [],
      "payable": false,
      "stateMutability": "nonpayable",
      "type": "function",
      "signature": "0x9a5285d1"
    },
    {
      "constant": true,
      "inputs": [],
      "name": "getCurrentRegistrationPrice",
      "outputs": [
        {
          "name": "",
          "type": "uint256"
        }
      ],
      "payable": false,
      "stateMutability": "view",
      "type": "function",
      "signature": "0x46019a2a"
    },
    {
      "constant": false,
      "inputs": [
        {
          "name": "_to",
          "type": "address"
        }
      ],
      "name": "withdraw",
      "outputs": [],
      "payable": false,
      "stateMutability": "nonpayable",
      "type": "function",
      "signature": "0x51cff8d9"
    },
    {
      "constant": false,
      "inputs": [
        {
          "name": "uniqueId",
          "type": "uint256"
        },
        {
          "name": "newState",
          "type": "uint8"
        }
      ],
      "name": "updateState",
      "outputs": [],
      "payable": false,
      "stateMutability": "nonpayable",
      "type": "function",
      "signature": "0xffbafdfe"
    }
  ],
  "bytecode": "0x6080604052660aa87bee538000600d553480156200001c57600080fd5b506040805190810160405280601681526020017f4b455454452042696379636c65205265676973747279000000000000000000008152506040805190810160405280600381526020017f4b45540000000000000000000000000000000000000000000000000000000000815250620000c66301ffc9a77c01000000000000000000000000000000000000000000000000000000000262000275640100000000026401000000009004565b620001036380ac58cd7c01000000000000000000000000000000000000000000000000000000000262000275640100000000026401000000009004565b6200014063780e9d637c01000000000000000000000000000000000000000000000000000000000262000275640100000000026401000000009004565b81600990805190602001906200015892919062000333565b5080600a90805190602001906200017192919062000333565b50620001af635b5e139f7c01000000000000000000000000000000000000000000000000000000000262000275640100000000026401000000009004565b505033600c60006101000a81548173ffffffffffffffffffffffffffffffffffffffff021916908373ffffffffffffffffffffffffffffffffffffffff160217905550600c60009054906101000a900473ffffffffffffffffffffffffffffffffffffffff1673ffffffffffffffffffffffffffffffffffffffff16600073ffffffffffffffffffffffffffffffffffffffff167f8be0079c531659141344cd1fd0a4f28419497f9722a3daafe3b4186f6b6457e060405160405180910390a3620003e2565b63ffffffff7c010000000000000000000000000000000000000000000000000000000002817bffffffffffffffffffffffffffffffffffffffffffffffffffffffff191614151515620002c757600080fd5b6001600080837bffffffffffffffffffffffffffffffffffffffffffffffffffffffff19167bffffffffffffffffffffffffffffffffffffffffffffffffffffffff1916815260200190815260200160002060006101000a81548160ff02191690831515021790555050565b828054600181600116156101000203166002900490600052602060002090601f016020900481019282601f106200037657805160ff1916838001178555620003a7565b82800160010185558215620003a7579182015b82811115620003a657825182559160200191906001019062000389565b5b509050620003b69190620003ba565b5090565b620003df91905b80821115620003db576000816000905550600101620003c1565b5090565b90565b61335a80620003f26000396000f300608060405260043610610180576000357c0100000000000000000000000000000000000000000000000000000000900463ffffffff16806301ffc9a71461018557806306fdde03146101e9578063081812fc1461027957806308c3febe146102e6578063095ea7b3146103ef5780630f4ebd5b1461043c57806313677d9b1461063457806318160ddd1461078257806323b872dd146107ad5780632f745c591461081a57806342842e0e1461087b57806346019a2a146108e85780634f6ccce71461091357806351cff8d9146109545780636352211e1461099757806370a0823114610a04578063715018a614610a5b5780638da5cb5b14610a725780638f32d59b14610ac957806395d89b4114610af85780639a5285d114610b885780639b1359bd14610bb5578063a22cb46514610c2b578063b88d4fde14610c7a578063c87b56dd14610d2d578063d004b03614610dd3578063d71584ad14610e6b578063e985e9c5146110a1578063f2fde38b1461111c578063ffbafdfe1461115f575b600080fd5b34801561019157600080fd5b506101cf60048036038101908080357bffffffffffffffffffffffffffffffffffffffffffffffffffffffff19169060200190929190505050611199565b604051808215151515815260200191505060405180910390f35b3480156101f557600080fd5b506101fe611200565b6040518080602001828103825283818151815260200191508051906020019080838360005b8381101561023e578082015181840152602081019050610223565b50505050905090810190601f16801561026b5780820380516001836020036101000a031916815260200191505b509250505060405180910390f35b34801561028557600080fd5b506102a4600480360381019080803590602001909291905050506112a2565b604051808273ffffffffffffffffffffffffffffffffffffffff1673ffffffffffffffffffffffffffffffffffffffff16815260200191505060405180910390f35b3480156102f257600080fd5b506103d9600480360381019080803590602001908201803590602001908080601f0160208091040260200160405190810160405280939291908181526020018383808284378201915050505050509192919290803590602001908201803590602001908080601f0160208091040260200160405190810160405280939291908181526020018383808284378201915050505050509192919290803590602001908201803590602001908080601f01602080910402602001604051908101604052809392919081815260200183838082843782019150505050505091929192905050506112f3565b6040518082815260200191505060405180910390f35b3480156103fb57600080fd5b5061043a600480360381019080803573ffffffffffffffffffffffffffffffffffffffff1690602001909291908035906020019092919050505061148c565b005b34801561044857600080fd5b50610467600480360381019080803590602001909291905050506115d1565b604051808060200180602001806020018781526020018060200186815260200185810385528b818151815260200191508051906020019080838360005b838110156104bf5780820151818401526020810190506104a4565b50505050905090810190601f1680156104ec5780820380516001836020036101000a031916815260200191505b5085810384528a818151815260200191508051906020019080838360005b8381101561052557808201518184015260208101905061050a565b50505050905090810190601f1680156105525780820380516001836020036101000a031916815260200191505b50858103835289818151815260200191508051906020019080838360005b8381101561058b578082015181840152602081019050610570565b50505050905090810190601f1680156105b85780820380516001836020036101000a031916815260200191505b50858103825287818151815260200191508051906020019080838360005b838110156105f15780820151818401526020810190506105d6565b50505050905090810190601f16801561061e5780820380516001836020036101000a031916815260200191505b509a505050505050505050505060405180910390f35b610780600480360381019080803590602001908201803590602001908080601f0160208091040260200160405190810160405280939291908181526020018383808284378201915050505050509192919290803590602001908201803590602001908080601f0160208091040260200160405190810160405280939291908181526020018383808284378201915050505050509192919290803590602001908201803590602001908080601f0160208091040260200160405190810160405280939291908181526020018383808284378201915050505050509192919290803590602001908201803590602001908080601f0160208091040260200160405190810160405280939291908181526020018383808284378201915050505050509192919290803573ffffffffffffffffffffffffffffffffffffffff1690602001909291905050506118a1565b005b34801561078e57600080fd5b50610797611a6d565b6040518082815260200191505060405180910390f35b3480156107b957600080fd5b50610818600480360381019080803573ffffffffffffffffffffffffffffffffffffffff169060200190929190803573ffffffffffffffffffffffffffffffffffffffff16906020019092919080359060200190929190505050611a7a565b005b34801561082657600080fd5b50610865600480360381019080803573ffffffffffffffffffffffffffffffffffffffff16906020019092919080359060200190929190505050611b49565b6040518082815260200191505060405180910390f35b34801561088757600080fd5b506108e6600480360381019080803573ffffffffffffffffffffffffffffffffffffffff169060200190929190803573ffffffffffffffffffffffffffffffffffffffff16906020019092919080359060200190929190505050611bc0565b005b3480156108f457600080fd5b506108fd611be1565b6040518082815260200191505060405180910390f35b34801561091f57600080fd5b5061093e60048036038101908080359060200190929190505050611beb565b6040518082815260200191505060405180910390f35b34801561096057600080fd5b50610995600480360381019080803573ffffffffffffffffffffffffffffffffffffffff169060200190929190505050611c23565b005b3480156109a357600080fd5b506109c260048036038101908080359060200190929190505050611c97565b604051808273ffffffffffffffffffffffffffffffffffffffff1673ffffffffffffffffffffffffffffffffffffffff16815260200191505060405180910390f35b348015610a1057600080fd5b50610a45600480360381019080803573ffffffffffffffffffffffffffffffffffffffff169060200190929190505050611d15565b6040518082815260200191505060405180910390f35b348015610a6757600080fd5b50610a70611d99565b005b348015610a7e57600080fd5b50610a87611e6d565b604051808273ffffffffffffffffffffffffffffffffffffffff1673ffffffffffffffffffffffffffffffffffffffff16815260200191505060405180910390f35b348015610ad557600080fd5b50610ade611e97565b604051808215151515815260200191505060405180910390f35b348015610b0457600080fd5b50610b0d611eef565b6040518080602001828103825283818151815260200191508051906020019080838360005b83811015610b4d578082015181840152602081019050610b32565b50505050905090810190601f168015610b7a5780820380516001836020036101000a031916815260200191505b509250505060405180910390f35b348015610b9457600080fd5b50610bb360048036038101908080359060200190929190505050611f91565b005b610c29600480360381019080803590602001908201803590602001919091929391929390803590602001908201803590602001919091929391929390803590602001908201803590602001919091929391929390803590602001908201803590602001919091929391929390505050611fae565b005b348015610c3757600080fd5b50610c78600480360381019080803573ffffffffffffffffffffffffffffffffffffffff16906020019092919080351515906020019092919050505061208d565b005b348015610c8657600080fd5b50610d2b600480360381019080803573ffffffffffffffffffffffffffffffffffffffff169060200190929190803573ffffffffffffffffffffffffffffffffffffffff16906020019092919080359060200190929190803590602001908201803590602001908080601f01602080910402602001604051908101604052809392919081815260200183838082843782019150505050505091929192905050506121c9565b005b348015610d3957600080fd5b50610d58600480360381019080803590602001909291905050506121f1565b6040518080602001828103825283818151815260200191508051906020019080838360005b83811015610d98578082015181840152602081019050610d7d565b50505050905090810190601f168015610dc55780820380516001836020036101000a031916815260200191505b509250505060405180910390f35b348015610ddf57600080fd5b50610e14600480360381019080803573ffffffffffffffffffffffffffffffffffffffff1690602001909291905050506122ba565b6040518080602001828103825283818151815260200191508051906020019060200280838360005b83811015610e57578082015181840152602081019050610e3c565b505050509050019250505060405180910390f35b348015610e7757600080fd5b50610ed4600480360381019080803590602001908201803590602001919091929391929390803590602001908201803590602001919091929391929390803590602001908201803590602001919091929391929390505050612351565b604051808060200180602001806020018781526020018060200186815260200185810385528b818151815260200191508051906020019080838360005b83811015610f2c578082015181840152602081019050610f11565b50505050905090810190601f168015610f595780820380516001836020036101000a031916815260200191505b5085810384528a818151815260200191508051906020019080838360005b83811015610f92578082015181840152602081019050610f77565b50505050905090810190601f168015610fbf5780820380516001836020036101000a031916815260200191505b50858103835289818151815260200191508051906020019080838360005b83811015610ff8578082015181840152602081019050610fdd565b50505050905090810190601f1680156110255780820380516001836020036101000a031916815260200191505b50858103825287818151815260200191508051906020019080838360005b8381101561105e578082015181840152602081019050611043565b50505050905090810190601f16801561108b5780820380516001836020036101000a031916815260200191505b509a505050505050505050505060405180910390f35b3480156110ad57600080fd5b50611102600480360381019080803573ffffffffffffffffffffffffffffffffffffffff169060200190929190803573ffffffffffffffffffffffffffffffffffffffff169060200190929190505050612425565b604051808215151515815260200191505060405180910390f35b34801561112857600080fd5b5061115d600480360381019080803573ffffffffffffffffffffffffffffffffffffffff1690602001909291905050506124b9565b005b34801561116b57600080fd5b5061119760048036038101908080359060200190929190803560ff1690602001909291905050506124d8565b005b6000806000837bffffffffffffffffffffffffffffffffffffffffffffffffffffffff19167bffffffffffffffffffffffffffffffffffffffffffffffffffffffff1916815260200190815260200160002060009054906101000a900460ff169050919050565b606060098054600181600116156101000203166002900480601f0160208091040260200160405190810160405280929190818152602001828054600181600116156101000203166002900480156112985780601f1061126d57610100808354040283529160200191611298565b820191906000526020600020905b81548152906001019060200180831161127b57829003601f168201915b5050505050905090565b60006112ad82612694565b15156112b857600080fd5b6002600083815260200190815260200160002060009054906101000a900473ffffffffffffffffffffffffffffffffffffffff169050919050565b600060606000808686866040516020018084805190602001908083835b6020831015156113355780518252602082019150602081019050602083039250611310565b6001836020036101000a03801982511681845116808217855250505050505090500183805190602001908083835b6020831015156113885780518252602082019150602081019050602083039250611363565b6001836020036101000a03801982511681845116808217855250505050505090500182805190602001908083835b6020831015156113db57805182526020820191506020810190506020830392506113b6565b6001836020036101000a03801982511681845116808217855250505050505090500193505050506040516020818303038152906040529250826040518082805190602001908083835b6020831015156114495780518252602082019150602081019050602083039250611424565b6001836020036101000a03801982511681845116808217855250505050505090500191505060405180910390209150816001900490508093505050509392505050565b600061149782611c97565b90508073ffffffffffffffffffffffffffffffffffffffff168373ffffffffffffffffffffffffffffffffffffffff16141515156114d457600080fd5b8073ffffffffffffffffffffffffffffffffffffffff163373ffffffffffffffffffffffffffffffffffffffff16148061151457506115138133612425565b5b151561151f57600080fd5b826002600084815260200190815260200160002060006101000a81548173ffffffffffffffffffffffffffffffffffffffff021916908373ffffffffffffffffffffffffffffffffffffffff160217905550818373ffffffffffffffffffffffffffffffffffffffff168273ffffffffffffffffffffffffffffffffffffffff167f8c5be1e5ebec7d5bd14f71427d1e84f3dd0314c0f7b2291e5b200ac8c7c3b92560405160405180910390a4505050565b606080606060006060600080600e600089815260200190815260200160002090508060020181600301826004018360000160009054906101000a900460ff16846001018c858054600181600116156101000203166002900480601f0160208091040260200160405190810160405280929190818152602001828054600181600116156101000203166002900480156116aa5780601f1061167f576101008083540402835291602001916116aa565b820191906000526020600020905b81548152906001019060200180831161168d57829003601f168201915b50505050509550848054600181600116156101000203166002900480601f0160208091040260200160405190810160405280929190818152602001828054600181600116156101000203166002900480156117465780601f1061171b57610100808354040283529160200191611746565b820191906000526020600020905b81548152906001019060200180831161172957829003601f168201915b50505050509450838054600181600116156101000203166002900480601f0160208091040260200160405190810160405280929190818152602001828054600181600116156101000203166002900480156117e25780601f106117b7576101008083540402835291602001916117e2565b820191906000526020600020905b8154815290600101906020018083116117c557829003601f168201915b505050505093508260ff169250818054600181600116156101000203166002900480601f0160208091040260200160405190810160405280929190818152602001828054600181600116156101000203166002900480156118845780601f1061185957610100808354040283529160200191611884565b820191906000526020600020905b81548152906001019060200180831161186757829003601f168201915b505050505091509650965096509650965096505091939550919395565b60006118ab61322a565b600d543410151515611925576040517f08c379a000000000000000000000000000000000000000000000000000000000815260040180806020018281038252601e8152602001807f416d6f756e74206f662045746865722073656e7420746f6f20736d616c6c000081525060200191505060405180910390fd5b6119308787876112f3565b915061193c8383612706565b60a060405190810160405280600060ff16815260200185815260200188815260200187815260200186815250905080600e600084815260200190815260200160002060008201518160000160006101000a81548160ff021916908360ff16021790555060208201518160010190805190602001906119bb92919061325d565b5060408201518160020190805190602001906119d892919061325d565b5060608201518160030190805190602001906119f592919061325d565b506080820151816004019080519060200190611a1292919061325d565b509050508273ffffffffffffffffffffffffffffffffffffffff167f759bfa869f6fdff899bc9c33192f8cd4dd448a5ee0b8e14e03bfbf482de825f2836040518082815260200191505060405180910390a250505050505050565b6000600780549050905090565b611a84338261275d565b1515611a8f57600080fd5b600073ffffffffffffffffffffffffffffffffffffffff168273ffffffffffffffffffffffffffffffffffffffff1614151515611acb57600080fd5b611ad583826127f2565b611adf83826128f5565b611ae98282612ab1565b808273ffffffffffffffffffffffffffffffffffffffff168473ffffffffffffffffffffffffffffffffffffffff167fddf252ad1be2c89b69c2b068fc378daa952ba7f163c4a11628f55a4df523b3ef60405160405180910390a4505050565b6000611b5483611d15565b82101515611b6157600080fd5b600560008473ffffffffffffffffffffffffffffffffffffffff1673ffffffffffffffffffffffffffffffffffffffff16815260200190815260200160002082815481101515611bad57fe5b9060005260206000200154905092915050565b611bdc83838360206040519081016040528060008152506121c9565b505050565b6000600d54905090565b6000611bf5611a6d565b82101515611c0257600080fd5b600782815481101515611c1157fe5b90600052602060002001549050919050565b611c2b611e97565b1515611c3657600080fd5b8073ffffffffffffffffffffffffffffffffffffffff166108fc3073ffffffffffffffffffffffffffffffffffffffff16319081150290604051600060405180830381858888f19350505050158015611c93573d6000803e3d6000fd5b5050565b6000806001600084815260200190815260200160002060009054906101000a900473ffffffffffffffffffffffffffffffffffffffff169050600073ffffffffffffffffffffffffffffffffffffffff168173ffffffffffffffffffffffffffffffffffffffff1614151515611d0c57600080fd5b80915050919050565b60008073ffffffffffffffffffffffffffffffffffffffff168273ffffffffffffffffffffffffffffffffffffffff1614151515611d5257600080fd5b600360008373ffffffffffffffffffffffffffffffffffffffff1673ffffffffffffffffffffffffffffffffffffffff168152602001908152602001600020549050919050565b611da1611e97565b1515611dac57600080fd5b600073ffffffffffffffffffffffffffffffffffffffff16600c60009054906101000a900473ffffffffffffffffffffffffffffffffffffffff1673ffffffffffffffffffffffffffffffffffffffff167f8be0079c531659141344cd1fd0a4f28419497f9722a3daafe3b4186f6b6457e060405160405180910390a36000600c60006101000a81548173ffffffffffffffffffffffffffffffffffffffff021916908373ffffffffffffffffffffffffffffffffffffffff160217905550565b6000600c60009054906101000a900473ffffffffffffffffffffffffffffffffffffffff16905090565b6000600c60009054906101000a900473ffffffffffffffffffffffffffffffffffffffff1673ffffffffffffffffffffffffffffffffffffffff163373ffffffffffffffffffffffffffffffffffffffff1614905090565b6060600a8054600181600116156101000203166002900480601f016020809104026020016040519081016040528092919081815260200182805460018160011615610100020316600290048015611f875780601f10611f5c57610100808354040283529160200191611f87565b820191906000526020600020905b815481529060010190602001808311611f6a57829003601f168201915b5050505050905090565b611f99611e97565b1515611fa457600080fd5b80600d8190555050565b61208388888080601f01602080910402602001604051908101604052809392919081815260200183838082843782019150505050505087878080601f01602080910402602001604051908101604052809392919081815260200183838082843782019150505050505086868080601f01602080910402602001604051908101604052809392919081815260200183838082843782019150505050505085858080601f016020809104026020016040519081016040528093929190818152602001838380828437820191505050505050336118a1565b5050505050505050565b3373ffffffffffffffffffffffffffffffffffffffff168273ffffffffffffffffffffffffffffffffffffffff16141515156120c857600080fd5b80600460003373ffffffffffffffffffffffffffffffffffffffff1673ffffffffffffffffffffffffffffffffffffffff16815260200190815260200160002060008473ffffffffffffffffffffffffffffffffffffffff1673ffffffffffffffffffffffffffffffffffffffff16815260200190815260200160002060006101000a81548160ff0219169083151502179055508173ffffffffffffffffffffffffffffffffffffffff163373ffffffffffffffffffffffffffffffffffffffff167f17307eab39ab6107e8899845ad3d59bd9653f200f220920489ca2b5937696c3183604051808215151515815260200191505060405180910390a35050565b6121d4848484611a7a565b6121e084848484612b88565b15156121eb57600080fd5b50505050565b60606121fc82612694565b151561220757600080fd5b600b60008381526020019081526020016000208054600181600116156101000203166002900480601f0160208091040260200160405190810160405280929190818152602001828054600181600116156101000203166002900480156122ae5780601f10612283576101008083540402835291602001916122ae565b820191906000526020600020905b81548152906001019060200180831161229157829003601f168201915b50505050509050919050565b6060600560008373ffffffffffffffffffffffffffffffffffffffff1673ffffffffffffffffffffffffffffffffffffffff16815260200190815260200160002080548060200260200160405190810160405280929190818152602001828054801561234557602002820191906000526020600020905b815481526020019060010190808311612331575b50505050509050919050565b6060806060600060606000806123fe8d8d8080601f0160208091040260200160405190810160405280939291908181526020018383808284378201915050505050508c8c8080601f0160208091040260200160405190810160405280939291908181526020018383808284378201915050505050508b8b8080601f0160208091040260200160405190810160405280939291908181526020018383808284378201915050505050506112f3565b9050612409816115d1565b9650965096509650965096505096509650965096509650969050565b6000600460008473ffffffffffffffffffffffffffffffffffffffff1673ffffffffffffffffffffffffffffffffffffffff16815260200190815260200160002060008373ffffffffffffffffffffffffffffffffffffffff1673ffffffffffffffffffffffffffffffffffffffff16815260200190815260200160002060009054906101000a900460ff16905092915050565b6124c1611e97565b15156124cc57600080fd5b6124d581612daa565b50565b600060038260ff16101515612555576040517f08c379a00000000000000000000000000000000000000000000000000000000081526004018080602001828103825260198152602001807f6f6e6c792073746174657320302c312c3220616c6c6f7765640000000000000081525060200191505060405180910390fd5b3373ffffffffffffffffffffffffffffffffffffffff1661257584611c97565b73ffffffffffffffffffffffffffffffffffffffff16141515612626576040517f08c379a00000000000000000000000000000000000000000000000000000000081526004018080602001828103825260218152602001807f6e6f74206f776e6572206f7220746f6b656e20646f6573206e6f74206578697381526020017f740000000000000000000000000000000000000000000000000000000000000081525060400191505060405180910390fd5b600e60008481526020019081526020016000209050818160000160006101000a81548160ff021916908360ff1602179055507f338ba04f9156b28bf628c701da0005a03bc76af59b37f1211027a34161eaec07836040518082815260200191505060405180910390a1505050565b6000806001600084815260200190815260200160002060009054906101000a900473ffffffffffffffffffffffffffffffffffffffff169050600073ffffffffffffffffffffffffffffffffffffffff168173ffffffffffffffffffffffffffffffffffffffff161415915050919050565b6127108282612ea6565b600780549050600860008381526020019081526020016000208190555060078190806001815401808255809150509060018203906000526020600020016000909192909190915055505050565b60008061276983611c97565b90508073ffffffffffffffffffffffffffffffffffffffff168473ffffffffffffffffffffffffffffffffffffffff1614806127d857508373ffffffffffffffffffffffffffffffffffffffff166127c0846112a2565b73ffffffffffffffffffffffffffffffffffffffff16145b806127e957506127e88185612425565b5b91505092915050565b8173ffffffffffffffffffffffffffffffffffffffff1661281282611c97565b73ffffffffffffffffffffffffffffffffffffffff1614151561283457600080fd5b600073ffffffffffffffffffffffffffffffffffffffff166002600083815260200190815260200160002060009054906101000a900473ffffffffffffffffffffffffffffffffffffffff1673ffffffffffffffffffffffffffffffffffffffff161415156128f15760006002600083815260200190815260200160002060006101000a81548173ffffffffffffffffffffffffffffffffffffffff021916908373ffffffffffffffffffffffffffffffffffffffff1602179055505b5050565b60008060006129048585612f4c565b600660008581526020019081526020016000205492506129706001600560008873ffffffffffffffffffffffffffffffffffffffff1673ffffffffffffffffffffffffffffffffffffffff1681526020019081526020016000208054905061307b90919063ffffffff16565b9150600560008673ffffffffffffffffffffffffffffffffffffffff1673ffffffffffffffffffffffffffffffffffffffff168152602001908152602001600020828154811015156129be57fe5b9060005260206000200154905080600560008773ffffffffffffffffffffffffffffffffffffffff1673ffffffffffffffffffffffffffffffffffffffff16815260200190815260200160002084815481101515612a1857fe5b9060005260206000200181905550600560008673ffffffffffffffffffffffffffffffffffffffff1673ffffffffffffffffffffffffffffffffffffffff168152602001908152602001600020805480919060019003612a7891906132dd565b50600060066000868152602001908152602001600020819055508260066000838152602001908152602001600020819055505050505050565b6000612abd838361309c565b600560008473ffffffffffffffffffffffffffffffffffffffff1673ffffffffffffffffffffffffffffffffffffffff168152602001908152602001600020805490509050600560008473ffffffffffffffffffffffffffffffffffffffff1673ffffffffffffffffffffffffffffffffffffffff168152602001908152602001600020829080600181540180825580915050906001820390600052602060002001600090919290919091505550806006600084815260200190815260200160002081905550505050565b600080612baa8573ffffffffffffffffffffffffffffffffffffffff166131f6565b1515612bb95760019150612da1565b8473ffffffffffffffffffffffffffffffffffffffff1663150b7a02338887876040518563ffffffff167c0100000000000000000000000000000000000000000000000000000000028152600401808573ffffffffffffffffffffffffffffffffffffffff1673ffffffffffffffffffffffffffffffffffffffff1681526020018473ffffffffffffffffffffffffffffffffffffffff1673ffffffffffffffffffffffffffffffffffffffff16815260200183815260200180602001828103825283818151815260200191508051906020019080838360005b83811015612cae578082015181840152602081019050612c93565b50505050905090810190601f168015612cdb5780820380516001836020036101000a031916815260200191505b5095505050505050602060405180830381600087803b158015612cfd57600080fd5b505af1158015612d11573d6000803e3d6000fd5b505050506040513d6020811015612d2757600080fd5b8101908080519060200190929190505050905063150b7a027c0100000000000000000000000000000000000000000000000000000000027bffffffffffffffffffffffffffffffffffffffffffffffffffffffff1916817bffffffffffffffffffffffffffffffffffffffffffffffffffffffff19161491505b50949350505050565b600073ffffffffffffffffffffffffffffffffffffffff168173ffffffffffffffffffffffffffffffffffffffff1614151515612de657600080fd5b8073ffffffffffffffffffffffffffffffffffffffff16600c60009054906101000a900473ffffffffffffffffffffffffffffffffffffffff1673ffffffffffffffffffffffffffffffffffffffff167f8be0079c531659141344cd1fd0a4f28419497f9722a3daafe3b4186f6b6457e060405160405180910390a380600c60006101000a81548173ffffffffffffffffffffffffffffffffffffffff021916908373ffffffffffffffffffffffffffffffffffffffff16021790555050565b600073ffffffffffffffffffffffffffffffffffffffff168273ffffffffffffffffffffffffffffffffffffffff1614151515612ee257600080fd5b612eec8282612ab1565b808273ffffffffffffffffffffffffffffffffffffffff16600073ffffffffffffffffffffffffffffffffffffffff167fddf252ad1be2c89b69c2b068fc378daa952ba7f163c4a11628f55a4df523b3ef60405160405180910390a45050565b8173ffffffffffffffffffffffffffffffffffffffff16612f6c82611c97565b73ffffffffffffffffffffffffffffffffffffffff16141515612f8e57600080fd5b612fe16001600360008573ffffffffffffffffffffffffffffffffffffffff1673ffffffffffffffffffffffffffffffffffffffff1681526020019081526020016000205461307b90919063ffffffff16565b600360008473ffffffffffffffffffffffffffffffffffffffff1673ffffffffffffffffffffffffffffffffffffffff1681526020019081526020016000208190555060006001600083815260200190815260200160002060006101000a81548173ffffffffffffffffffffffffffffffffffffffff021916908373ffffffffffffffffffffffffffffffffffffffff1602179055505050565b60008083831115151561308d57600080fd5b82840390508091505092915050565b600073ffffffffffffffffffffffffffffffffffffffff166001600083815260200190815260200160002060009054906101000a900473ffffffffffffffffffffffffffffffffffffffff1673ffffffffffffffffffffffffffffffffffffffff1614151561310a57600080fd5b816001600083815260200190815260200160002060006101000a81548173ffffffffffffffffffffffffffffffffffffffff021916908373ffffffffffffffffffffffffffffffffffffffff1602179055506131af6001600360008573ffffffffffffffffffffffffffffffffffffffff1673ffffffffffffffffffffffffffffffffffffffff1681526020019081526020016000205461320990919063ffffffff16565b600360008473ffffffffffffffffffffffffffffffffffffffff1673ffffffffffffffffffffffffffffffffffffffff168152602001908152602001600020819055505050565b600080823b905060008111915050919050565b600080828401905083811015151561322057600080fd5b8091505092915050565b60a060405190810160405280600060ff168152602001606081526020016060815260200160608152602001606081525090565b828054600181600116156101000203166002900490600052602060002090601f016020900481019282601f1061329e57805160ff19168380011785556132cc565b828001600101855582156132cc579182015b828111156132cb5782518255916020019190600101906132b0565b5b5090506132d99190613309565b5090565b815481835581811115613304578183600052602060002091820191016133039190613309565b5b505050565b61332b91905b8082111561332757600081600090555060010161330f565b5090565b905600a165627a7a723058200352cdf433da5c33bf47fb3bf0c5cc149d8345648f863572e19f89d2ba7f60fe0029",
  "source": "pragma solidity ^0.4.24;\n\nimport \"openzeppelin-solidity/contracts/ownership/Ownable.sol\";\nimport \"./MyERC721Enumerable.sol\";\nimport \"openzeppelin-solidity/contracts/token/ERC721/ERC721Metadata.sol\";\n\ncontract BicycleRegistry is MyERC721Enumerable, ERC721Metadata, Ownable {\n\n    /*** EVENTS ***/\n    event BicycleRegisterd(address indexed owner, uint256 tokenId);\n    event BicycleStateChanged(uint256 tokenId);\n\n    /// Price set by contract owner for each token in Wei.\n    uint256 currentRegistrationPrice = 3000000000000000;\n\n    struct Bicycle {\n        //allowed states are \n        // 0 - ok\n        // 1 - stolen\n        // 2 - lost\n        uint8 state;\n        string ipfsImageHash;\n\n        string vendor;\n        string serialNumber;\n        string frameNumber;\n    }\n    mapping (uint256 => Bicycle) bicycles;\n\n    constructor() ERC721Metadata(\"KETTE Bicycle Registry\", \"KET\") public {}\n\n    /// @notice registers a bicycle token with the given parameters for the caller of the function\n    /// and requires the caller to send currentRegistrationPrice (ETH) along with the transaction\n    /// @dev there are intentionally no checks for validity of the string parameters.\n    /// there is no advantages to register a bike token with invalid value. \n    /// @param _vendor the vendor of the bicycle. e.g.: Hercules or Carver\n    /// @param _serialNumber the serial number of the bicycle\n    /// @param _frameNumber the frame number of the bicycle\n    /// @param _ipfsImageHash multihash of an image of the bicycle on the ipfs\n    function registerBicycle (\n        string _vendor,\n        string _serialNumber,\n        string _frameNumber,\n        string _ipfsImageHash\n  ) external payable {\n        registerBicycleFor(_vendor,_serialNumber,_frameNumber,_ipfsImageHash, msg.sender);\n    }\n\n    /// @notice registers a bicycle token with the given parameters for a specified account\n    /// and requires the caller to send currentRegistrationPrice (ETH) along with the transaction\n    /// @dev there are intentionally no checks for validity of the string parameters.\n    /// there is no advantages to register a bike token with invalid value. \n    /// @param _vendor the vendor of the bicycle. e.g.: Hercules or Carver\n    /// @param _serialNumber the serial number of the bicycle\n    /// @param _frameNumber the frame number of the bicycle\n    /// @param _ipfsImageHash multihash of an image of the bicycle on the ipfs\n    /// @param _for address of the account the bicycle token should be registered for\n    function registerBicycleFor (\n        string _vendor,\n        string _serialNumber,\n        string _frameNumber,\n        string _ipfsImageHash,\n        address _for\n  ) public payable {\n        require(msg.value >= currentRegistrationPrice, \"Amount of Ether sent too small\");\n        uint256 uniqueId = computeUniqueId(_vendor,_serialNumber,_frameNumber);\n        _mint(_for, uniqueId);\n\n        Bicycle memory bicycle = Bicycle({\n            state: 0,\n            ipfsImageHash: _ipfsImageHash,\n            vendor: _vendor,\n            serialNumber: _serialNumber,\n            frameNumber: _frameNumber\n        });\n\n        bicycles[uniqueId] = bicycle;\n        emit BicycleRegisterd(_for, uniqueId);\n    }\n\n    /// @notice computes a unique ID given the three parameters\n    /// @param _vendor the vendor of the bicycle. e.g.: Hercules or Carver\n    /// @param _serialNumber the serial number of the bicycle\n    /// @param _frameNumber the frame number of the bicycle\n    function computeUniqueId(string _vendor,string _serialNumber,string _frameNumber) public pure returns (uint256) {\n        bytes memory packed = abi.encodePacked(_vendor,_serialNumber,_frameNumber);\n        bytes32 hashed = keccak256(packed);\n        uint256 uniqueId = uint256(hashed);\n        return uniqueId;\n    }\n\n    /// @notice Returns all bicycle information\n    /// @param _vendor the vendor of the bicycle. e.g.: Hercules or Carver\n    /// @param _serialNumber the serial number of the bicycle\n    /// @param _frameNumber the frame number of the bicycle\n    function lookUpBicycle(string _vendor,string _serialNumber,string _frameNumber) \n    external view \n    returns (string vendor_, string serialNumber_, string frameNumber_, int state_, string ipfsImageHash_, uint256 uniqueId_) {\n        uint256 uniqueId = computeUniqueId(_vendor,_serialNumber,_frameNumber);\n        return getBicycle(uniqueId);\n    }\n\n    /// @notice Returns all bicycle information\n    /// @param _uniqueId the ID of the token that represents the bicycle\n    function getBicycle(uint256 _uniqueId) public view \n    returns (string vendor_, string serialNumber_, string frameNumber_, int state_, string ipfsImageHash_, uint256 uniqueId_) {\n        Bicycle storage bike = bicycles[_uniqueId];\n        return (bike.vendor, bike.serialNumber, bike.frameNumber, bike.state, bike.ipfsImageHash, _uniqueId);\n    }\n\n    /// @notice Allows the owner of this contract to set the currentRegistrationPrice for each token\n    function setCurrentRegistrationPrice(uint256 newPrice) public onlyOwner {\n        currentRegistrationPrice = newPrice;\n    }\n\n    /// @notice Returns the currentRegistrationPrice for each token\n    function getCurrentRegistrationPrice() external view returns (uint256) {\n        return currentRegistrationPrice;\n    }\n\n    /// @notice Lets you withdraw all the contracts funds\n    /// @param _to account the withdraw should go to\n    function withdraw(address _to) external onlyOwner {\n        _to.transfer(address(this).balance);\n    }\n\n    /// @notice Updates the state of a registerd bicycle.\n    /// valid states are: 0 = ok, 1 = stolen, 2 = lost\n    /// @param uniqueId the id of the bicycle to update\n    /// @param newState the new state to set (range(0,2))\n    function updateState(uint256 uniqueId, uint8 newState) public {\n        require(newState < 3, \"only states 0,1,2 allowed\");\n        require(ownerOf(uniqueId) == msg.sender, \"not owner or token does not exist\");\n        Bicycle storage bicycle = bicycles[uniqueId];\n        bicycle.state = newState;\n        emit BicycleStateChanged(uniqueId);\n    }\n}\n",
  "sourcePath": "/Users/hannes/Data/Projects/kette/nft-asset-registry-smart-contracts/contracts/BicycleRegistry.sol",
  "compiler": {
    "name": "solc",
    "version": "0.4.24+commit.e67f0147.Emscripten.clang"
  },
  "schemaVersion": "3.0.0-beta.0",
  "updatedAt": "2018-11-17T19:06:13.253Z"
}