{
  "contractName": "BicycleRegistry",
  "abi": [
    {
      "constant": true,
      "inputs": [
        {
          "name": "interfaceId",
          "type": "bytes4"
        }
      ],
      "name": "supportsInterface",
      "outputs": [
        {
          "name": "",
          "type": "bool"
        }
      ],
      "payable": false,
      "stateMutability": "view",
      "type": "function"
    },
    {
      "constant": true,
      "inputs": [],
      "name": "name",
      "outputs": [
        {
          "name": "",
          "type": "string"
        }
      ],
      "payable": false,
      "stateMutability": "view",
      "type": "function"
    },
    {
      "constant": true,
      "inputs": [
        {
          "name": "tokenId",
          "type": "uint256"
        }
      ],
      "name": "getApproved",
      "outputs": [
        {
          "name": "",
          "type": "address"
        }
      ],
      "payable": false,
      "stateMutability": "view",
      "type": "function"
    },
    {
      "constant": false,
      "inputs": [
        {
          "name": "to",
          "type": "address"
        },
        {
          "name": "tokenId",
          "type": "uint256"
        }
      ],
      "name": "approve",
      "outputs": [],
      "payable": false,
      "stateMutability": "nonpayable",
      "type": "function"
    },
    {
      "constant": true,
      "inputs": [],
      "name": "totalSupply",
      "outputs": [
        {
          "name": "",
          "type": "uint256"
        }
      ],
      "payable": false,
      "stateMutability": "view",
      "type": "function"
    },
    {
      "constant": false,
      "inputs": [
        {
          "name": "from",
          "type": "address"
        },
        {
          "name": "to",
          "type": "address"
        },
        {
          "name": "tokenId",
          "type": "uint256"
        }
      ],
      "name": "transferFrom",
      "outputs": [],
      "payable": false,
      "stateMutability": "nonpayable",
      "type": "function"
    },
    {
      "constant": true,
      "inputs": [
        {
          "name": "owner",
          "type": "address"
        },
        {
          "name": "index",
          "type": "uint256"
        }
      ],
      "name": "tokenOfOwnerByIndex",
      "outputs": [
        {
          "name": "",
          "type": "uint256"
        }
      ],
      "payable": false,
      "stateMutability": "view",
      "type": "function"
    },
    {
      "constant": false,
      "inputs": [
        {
          "name": "from",
          "type": "address"
        },
        {
          "name": "to",
          "type": "address"
        },
        {
          "name": "tokenId",
          "type": "uint256"
        }
      ],
      "name": "safeTransferFrom",
      "outputs": [],
      "payable": false,
      "stateMutability": "nonpayable",
      "type": "function"
    },
    {
      "constant": true,
      "inputs": [
        {
          "name": "index",
          "type": "uint256"
        }
      ],
      "name": "tokenByIndex",
      "outputs": [
        {
          "name": "",
          "type": "uint256"
        }
      ],
      "payable": false,
      "stateMutability": "view",
      "type": "function"
    },
    {
      "constant": true,
      "inputs": [
        {
          "name": "tokenId",
          "type": "uint256"
        }
      ],
      "name": "ownerOf",
      "outputs": [
        {
          "name": "",
          "type": "address"
        }
      ],
      "payable": false,
      "stateMutability": "view",
      "type": "function"
    },
    {
      "constant": true,
      "inputs": [
        {
          "name": "",
          "type": "address"
        }
      ],
      "name": "replayNonce",
      "outputs": [
        {
          "name": "",
          "type": "uint256"
        }
      ],
      "payable": false,
      "stateMutability": "view",
      "type": "function"
    },
    {
      "constant": true,
      "inputs": [
        {
          "name": "owner",
          "type": "address"
        }
      ],
      "name": "balanceOf",
      "outputs": [
        {
          "name": "",
          "type": "uint256"
        }
      ],
      "payable": false,
      "stateMutability": "view",
      "type": "function"
    },
    {
      "constant": false,
      "inputs": [],
      "name": "renounceOwnership",
      "outputs": [],
      "payable": false,
      "stateMutability": "nonpayable",
      "type": "function"
    },
    {
      "constant": true,
      "inputs": [],
      "name": "owner",
      "outputs": [
        {
          "name": "",
          "type": "address"
        }
      ],
      "payable": false,
      "stateMutability": "view",
      "type": "function"
    },
    {
      "constant": true,
      "inputs": [],
      "name": "isOwner",
      "outputs": [
        {
          "name": "",
          "type": "bool"
        }
      ],
      "payable": false,
      "stateMutability": "view",
      "type": "function"
    },
    {
      "constant": true,
      "inputs": [],
      "name": "symbol",
      "outputs": [
        {
          "name": "",
          "type": "string"
        }
      ],
      "payable": false,
      "stateMutability": "view",
      "type": "function"
    },
    {
      "constant": false,
      "inputs": [
        {
          "name": "to",
          "type": "address"
        },
        {
          "name": "approved",
          "type": "bool"
        }
      ],
      "name": "setApprovalForAll",
      "outputs": [],
      "payable": false,
      "stateMutability": "nonpayable",
      "type": "function"
    },
    {
      "constant": false,
      "inputs": [
        {
          "name": "from",
          "type": "address"
        },
        {
          "name": "to",
          "type": "address"
        },
        {
          "name": "tokenId",
          "type": "uint256"
        },
        {
          "name": "_data",
          "type": "bytes"
        }
      ],
      "name": "safeTransferFrom",
      "outputs": [],
      "payable": false,
      "stateMutability": "nonpayable",
      "type": "function"
    },
    {
      "constant": true,
      "inputs": [
        {
          "name": "tokenId",
          "type": "uint256"
        }
      ],
      "name": "tokenURI",
      "outputs": [
        {
          "name": "",
          "type": "string"
        }
      ],
      "payable": false,
      "stateMutability": "view",
      "type": "function"
    },
    {
      "constant": true,
      "inputs": [
        {
          "name": "_tokenOwner",
          "type": "address"
        }
      ],
      "name": "getTokenIds",
      "outputs": [
        {
          "name": "",
          "type": "uint256[]"
        }
      ],
      "payable": false,
      "stateMutability": "view",
      "type": "function"
    },
    {
      "constant": true,
      "inputs": [
        {
          "name": "owner",
          "type": "address"
        },
        {
          "name": "operator",
          "type": "address"
        }
      ],
      "name": "isApprovedForAll",
      "outputs": [
        {
          "name": "",
          "type": "bool"
        }
      ],
      "payable": false,
      "stateMutability": "view",
      "type": "function"
    },
    {
      "constant": false,
      "inputs": [
        {
          "name": "newOwner",
          "type": "address"
        }
      ],
      "name": "transferOwnership",
      "outputs": [],
      "payable": false,
      "stateMutability": "nonpayable",
      "type": "function"
    },
    {
      "inputs": [],
      "payable": false,
      "stateMutability": "nonpayable",
      "type": "constructor"
    },
    {
      "anonymous": false,
      "inputs": [
        {
          "indexed": true,
          "name": "owner",
          "type": "address"
        },
        {
          "indexed": false,
          "name": "tokenId",
          "type": "uint256"
        }
      ],
      "name": "BicycleRegisterd",
      "type": "event"
    },
    {
      "anonymous": false,
      "inputs": [
        {
          "indexed": false,
          "name": "tokenId",
          "type": "uint256"
        }
      ],
      "name": "BicycleStateChanged",
      "type": "event"
    },
    {
      "anonymous": false,
      "inputs": [
        {
          "indexed": true,
          "name": "previousOwner",
          "type": "address"
        },
        {
          "indexed": true,
          "name": "newOwner",
          "type": "address"
        }
      ],
      "name": "OwnershipTransferred",
      "type": "event"
    },
    {
      "anonymous": false,
      "inputs": [
        {
          "indexed": true,
          "name": "from",
          "type": "address"
        },
        {
          "indexed": true,
          "name": "to",
          "type": "address"
        },
        {
          "indexed": true,
          "name": "tokenId",
          "type": "uint256"
        }
      ],
      "name": "Transfer",
      "type": "event"
    },
    {
      "anonymous": false,
      "inputs": [
        {
          "indexed": true,
          "name": "owner",
          "type": "address"
        },
        {
          "indexed": true,
          "name": "approved",
          "type": "address"
        },
        {
          "indexed": true,
          "name": "tokenId",
          "type": "uint256"
        }
      ],
      "name": "Approval",
      "type": "event"
    },
    {
      "anonymous": false,
      "inputs": [
        {
          "indexed": true,
          "name": "owner",
          "type": "address"
        },
        {
          "indexed": true,
          "name": "operator",
          "type": "address"
        },
        {
          "indexed": false,
          "name": "approved",
          "type": "bool"
        }
      ],
      "name": "ApprovalForAll",
      "type": "event"
    },
    {
      "constant": false,
      "inputs": [
        {
          "name": "_vendor",
          "type": "string"
        },
        {
          "name": "_serialNumber",
          "type": "string"
        },
        {
          "name": "_frameNumber",
          "type": "string"
        },
        {
          "name": "_ipfsImageHash",
          "type": "string"
        }
      ],
      "name": "registerBicycle",
      "outputs": [],
      "payable": true,
      "stateMutability": "payable",
      "type": "function"
    },
    {
      "constant": false,
      "inputs": [
        {
          "name": "_vendor",
          "type": "string"
        },
        {
          "name": "_serialNumber",
          "type": "string"
        },
        {
          "name": "_frameNumber",
          "type": "string"
        },
        {
          "name": "_ipfsImageHash",
          "type": "string"
        },
        {
          "name": "_for",
          "type": "address"
        }
      ],
      "name": "registerBicycleFor",
      "outputs": [],
      "payable": true,
      "stateMutability": "payable",
      "type": "function"
    },
    {
      "constant": true,
      "inputs": [
        {
          "name": "_vendor",
          "type": "string"
        },
        {
          "name": "_serialNumber",
          "type": "string"
        },
        {
          "name": "_frameNumber",
          "type": "string"
        }
      ],
      "name": "computeUniqueId",
      "outputs": [
        {
          "name": "",
          "type": "uint256"
        }
      ],
      "payable": false,
      "stateMutability": "pure",
      "type": "function"
    },
    {
      "constant": true,
      "inputs": [
        {
          "name": "_vendor",
          "type": "string"
        },
        {
          "name": "_serialNumber",
          "type": "string"
        },
        {
          "name": "_frameNumber",
          "type": "string"
        }
      ],
      "name": "lookUpBicycle",
      "outputs": [
        {
          "name": "vendor_",
          "type": "string"
        },
        {
          "name": "serialNumber_",
          "type": "string"
        },
        {
          "name": "frameNumber_",
          "type": "string"
        },
        {
          "name": "state_",
          "type": "int256"
        },
        {
          "name": "ipfsImageHash_",
          "type": "string"
        },
        {
          "name": "uniqueId_",
          "type": "uint256"
        }
      ],
      "payable": false,
      "stateMutability": "view",
      "type": "function"
    },
    {
      "constant": true,
      "inputs": [
        {
          "name": "_uniqueId",
          "type": "uint256"
        }
      ],
      "name": "getBicycle",
      "outputs": [
        {
          "name": "vendor_",
          "type": "string"
        },
        {
          "name": "serialNumber_",
          "type": "string"
        },
        {
          "name": "frameNumber_",
          "type": "string"
        },
        {
          "name": "state_",
          "type": "int256"
        },
        {
          "name": "ipfsImageHash_",
          "type": "string"
        },
        {
          "name": "uniqueId_",
          "type": "uint256"
        }
      ],
      "payable": false,
      "stateMutability": "view",
      "type": "function"
    },
    {
      "constant": false,
      "inputs": [
        {
          "name": "newPrice",
          "type": "uint256"
        }
      ],
      "name": "setCurrentRegistrationPrice",
      "outputs": [],
      "payable": false,
      "stateMutability": "nonpayable",
      "type": "function"
    },
    {
      "constant": true,
      "inputs": [],
      "name": "getCurrentRegistrationPrice",
      "outputs": [
        {
          "name": "",
          "type": "uint256"
        }
      ],
      "payable": false,
      "stateMutability": "view",
      "type": "function"
    },
    {
      "constant": false,
      "inputs": [
        {
          "name": "_to",
          "type": "address"
        }
      ],
      "name": "withdraw",
      "outputs": [],
      "payable": false,
      "stateMutability": "nonpayable",
      "type": "function"
    },
    {
      "constant": false,
      "inputs": [
        {
          "name": "uniqueId",
          "type": "uint256"
        },
        {
          "name": "newState",
          "type": "uint8"
        }
      ],
      "name": "updateState",
      "outputs": [],
      "payable": false,
      "stateMutability": "nonpayable",
      "type": "function"
    },
    {
      "constant": false,
      "inputs": [
        {
          "name": "signature",
          "type": "bytes"
        },
        {
          "name": "uniqueId",
          "type": "uint256"
        },
        {
          "name": "newState",
          "type": "uint8"
        },
        {
          "name": "nonce",
          "type": "uint256"
        }
      ],
      "name": "metaUpdateState",
      "outputs": [],
      "payable": false,
      "stateMutability": "nonpayable",
      "type": "function"
    },
    {
      "constant": true,
      "inputs": [
        {
          "name": "uniqueId",
          "type": "uint256"
        },
        {
          "name": "newState",
          "type": "uint8"
        },
        {
          "name": "nonce",
          "type": "uint256"
        }
      ],
      "name": "metaUpdateStateHash",
      "outputs": [
        {
          "name": "",
          "type": "bytes32"
        }
      ],
      "payable": false,
      "stateMutability": "view",
      "type": "function"
    }
  ],
  "bytecode": "0x6080604052660aa87bee538000600d553480156200001c57600080fd5b506040805190810160405280601681526020017f4b455454452042696379636c65205265676973747279000000000000000000008152506040805190810160405280600381526020017f4b45540000000000000000000000000000000000000000000000000000000000815250620000c66301ffc9a77c01000000000000000000000000000000000000000000000000000000000262000275640100000000026401000000009004565b620001036380ac58cd7c01000000000000000000000000000000000000000000000000000000000262000275640100000000026401000000009004565b6200014063780e9d637c01000000000000000000000000000000000000000000000000000000000262000275640100000000026401000000009004565b81600990805190602001906200015892919062000333565b5080600a90805190602001906200017192919062000333565b50620001af635b5e139f7c01000000000000000000000000000000000000000000000000000000000262000275640100000000026401000000009004565b505033600c60006101000a81548173ffffffffffffffffffffffffffffffffffffffff021916908373ffffffffffffffffffffffffffffffffffffffff160217905550600c60009054906101000a900473ffffffffffffffffffffffffffffffffffffffff1673ffffffffffffffffffffffffffffffffffffffff16600073ffffffffffffffffffffffffffffffffffffffff167f8be0079c531659141344cd1fd0a4f28419497f9722a3daafe3b4186f6b6457e060405160405180910390a3620003e2565b63ffffffff7c010000000000000000000000000000000000000000000000000000000002817bffffffffffffffffffffffffffffffffffffffffffffffffffffffff191614151515620002c757600080fd5b6001600080837bffffffffffffffffffffffffffffffffffffffffffffffffffffffff19167bffffffffffffffffffffffffffffffffffffffffffffffffffffffff1916815260200190815260200160002060006101000a81548160ff02191690831515021790555050565b828054600181600116156101000203166002900490600052602060002090601f016020900481019282601f106200037657805160ff1916838001178555620003a7565b82800160010185558215620003a7579182015b82811115620003a657825182559160200191906001019062000389565b5b509050620003b69190620003ba565b5090565b620003df91905b80821115620003db576000816000905550600101620003c1565b5090565b90565b61394880620003f26000396000f3006080604052600436106101a1576000357c0100000000000000000000000000000000000000000000000000000000900463ffffffff16806301ffc9a7146101a65780630262be501461020a57806306fdde0314610294578063081812fc1461032457806308c3febe14610391578063095ea7b31461049a5780630f4ebd5b146104e757806313677d9b146106df57806318160ddd1461082d57806323b872dd146108585780632f745c59146108c557806342842e0e1461092657806346019a2a146109935780634f6ccce7146109be57806351cff8d9146109ff5780636352211e14610a4257806367d407df14610aaf57806370a0823114610b06578063715018a614610b5d5780638da5cb5b14610b745780638f32d59b14610bcb57806395d89b4114610bfa5780639a5285d114610c8a5780639b1359bd14610cb7578063a22cb46514610d2d578063a3c23b9a14610d7c578063b88d4fde14610ddc578063c87b56dd14610e8f578063d004b03614610f35578063d71584ad14610fcd578063e985e9c514611203578063f2fde38b1461127e578063ffbafdfe146112c1575b600080fd5b3480156101b257600080fd5b506101f060048036038101908080357bffffffffffffffffffffffffffffffffffffffffffffffffffffffff191690602001909291905050506112fb565b604051808215151515815260200191505060405180910390f35b34801561021657600080fd5b50610292600480360381019080803590602001908201803590602001908080601f016020809104026020016040519081016040528093929190818152602001838380828437820191505050505050919291929080359060200190929190803560ff16906020019092919080359060200190929190505050611362565b005b3480156102a057600080fd5b506102a9611496565b6040518080602001828103825283818151815260200191508051906020019080838360005b838110156102e95780820151818401526020810190506102ce565b50505050905090810190601f1680156103165780820380516001836020036101000a031916815260200191505b509250505060405180910390f35b34801561033057600080fd5b5061034f60048036038101908080359060200190929190505050611538565b604051808273ffffffffffffffffffffffffffffffffffffffff1673ffffffffffffffffffffffffffffffffffffffff16815260200191505060405180910390f35b34801561039d57600080fd5b50610484600480360381019080803590602001908201803590602001908080601f0160208091040260200160405190810160405280939291908181526020018383808284378201915050505050509192919290803590602001908201803590602001908080601f0160208091040260200160405190810160405280939291908181526020018383808284378201915050505050509192919290803590602001908201803590602001908080601f0160208091040260200160405190810160405280939291908181526020018383808284378201915050505050509192919290505050611589565b6040518082815260200191505060405180910390f35b3480156104a657600080fd5b506104e5600480360381019080803573ffffffffffffffffffffffffffffffffffffffff16906020019092919080359060200190929190505050611722565b005b3480156104f357600080fd5b5061051260048036038101908080359060200190929190505050611867565b604051808060200180602001806020018781526020018060200186815260200185810385528b818151815260200191508051906020019080838360005b8381101561056a57808201518184015260208101905061054f565b50505050905090810190601f1680156105975780820380516001836020036101000a031916815260200191505b5085810384528a818151815260200191508051906020019080838360005b838110156105d05780820151818401526020810190506105b5565b50505050905090810190601f1680156105fd5780820380516001836020036101000a031916815260200191505b50858103835289818151815260200191508051906020019080838360005b8381101561063657808201518184015260208101905061061b565b50505050905090810190601f1680156106635780820380516001836020036101000a031916815260200191505b50858103825287818151815260200191508051906020019080838360005b8381101561069c578082015181840152602081019050610681565b50505050905090810190601f1680156106c95780820380516001836020036101000a031916815260200191505b509a505050505050505050505060405180910390f35b61082b600480360381019080803590602001908201803590602001908080601f0160208091040260200160405190810160405280939291908181526020018383808284378201915050505050509192919290803590602001908201803590602001908080601f0160208091040260200160405190810160405280939291908181526020018383808284378201915050505050509192919290803590602001908201803590602001908080601f0160208091040260200160405190810160405280939291908181526020018383808284378201915050505050509192919290803590602001908201803590602001908080601f0160208091040260200160405190810160405280939291908181526020018383808284378201915050505050509192919290803573ffffffffffffffffffffffffffffffffffffffff169060200190929190505050611b37565b005b34801561083957600080fd5b50610842611d03565b6040518082815260200191505060405180910390f35b34801561086457600080fd5b506108c3600480360381019080803573ffffffffffffffffffffffffffffffffffffffff169060200190929190803573ffffffffffffffffffffffffffffffffffffffff16906020019092919080359060200190929190505050611d10565b005b3480156108d157600080fd5b50610910600480360381019080803573ffffffffffffffffffffffffffffffffffffffff16906020019092919080359060200190929190505050611ddf565b6040518082815260200191505060405180910390f35b34801561093257600080fd5b50610991600480360381019080803573ffffffffffffffffffffffffffffffffffffffff169060200190929190803573ffffffffffffffffffffffffffffffffffffffff16906020019092919080359060200190929190505050611e56565b005b34801561099f57600080fd5b506109a8611e77565b6040518082815260200191505060405180910390f35b3480156109ca57600080fd5b506109e960048036038101908080359060200190929190505050611e81565b6040518082815260200191505060405180910390f35b348015610a0b57600080fd5b50610a40600480360381019080803573ffffffffffffffffffffffffffffffffffffffff169060200190929190505050611eb9565b005b348015610a4e57600080fd5b50610a6d60048036038101908080359060200190929190505050611f2d565b604051808273ffffffffffffffffffffffffffffffffffffffff1673ffffffffffffffffffffffffffffffffffffffff16815260200191505060405180910390f35b348015610abb57600080fd5b50610af0600480360381019080803573ffffffffffffffffffffffffffffffffffffffff169060200190929190505050611fab565b6040518082815260200191505060405180910390f35b348015610b1257600080fd5b50610b47600480360381019080803573ffffffffffffffffffffffffffffffffffffffff169060200190929190505050611fc3565b6040518082815260200191505060405180910390f35b348015610b6957600080fd5b50610b72612047565b005b348015610b8057600080fd5b50610b8961211b565b604051808273ffffffffffffffffffffffffffffffffffffffff1673ffffffffffffffffffffffffffffffffffffffff16815260200191505060405180910390f35b348015610bd757600080fd5b50610be0612145565b604051808215151515815260200191505060405180910390f35b348015610c0657600080fd5b50610c0f61219d565b6040518080602001828103825283818151815260200191508051906020019080838360005b83811015610c4f578082015181840152602081019050610c34565b50505050905090810190601f168015610c7c5780820380516001836020036101000a031916815260200191505b509250505060405180910390f35b348015610c9657600080fd5b50610cb56004803603810190808035906020019092919050505061223f565b005b610d2b60048036038101908080359060200190820180359060200191909192939192939080359060200190820180359060200191909192939192939080359060200190820180359060200191909192939192939080359060200190820180359060200191909192939192939050505061225c565b005b348015610d3957600080fd5b50610d7a600480360381019080803573ffffffffffffffffffffffffffffffffffffffff16906020019092919080351515906020019092919050505061233b565b005b348015610d8857600080fd5b50610dbe60048036038101908080359060200190929190803560ff16906020019092919080359060200190929190505050612477565b60405180826000191660001916815260200191505060405180910390f35b348015610de857600080fd5b50610e8d600480360381019080803573ffffffffffffffffffffffffffffffffffffffff169060200190929190803573ffffffffffffffffffffffffffffffffffffffff16906020019092919080359060200190929190803590602001908201803590602001908080601f01602080910402602001604051908101604052809392919081815260200183838082843782019150505050505091929192905050506125a7565b005b348015610e9b57600080fd5b50610eba600480360381019080803590602001909291905050506125cf565b6040518080602001828103825283818151815260200191508051906020019080838360005b83811015610efa578082015181840152602081019050610edf565b50505050905090810190601f168015610f275780820380516001836020036101000a031916815260200191505b509250505060405180910390f35b348015610f4157600080fd5b50610f76600480360381019080803573ffffffffffffffffffffffffffffffffffffffff169060200190929190505050612698565b6040518080602001828103825283818151815260200191508051906020019060200280838360005b83811015610fb9578082015181840152602081019050610f9e565b505050509050019250505060405180910390f35b348015610fd957600080fd5b5061103660048036038101908080359060200190820180359060200191909192939192939080359060200190820180359060200191909192939192939080359060200190820180359060200191909192939192939050505061272f565b604051808060200180602001806020018781526020018060200186815260200185810385528b818151815260200191508051906020019080838360005b8381101561108e578082015181840152602081019050611073565b50505050905090810190601f1680156110bb5780820380516001836020036101000a031916815260200191505b5085810384528a818151815260200191508051906020019080838360005b838110156110f45780820151818401526020810190506110d9565b50505050905090810190601f1680156111215780820380516001836020036101000a031916815260200191505b50858103835289818151815260200191508051906020019080838360005b8381101561115a57808201518184015260208101905061113f565b50505050905090810190601f1680156111875780820380516001836020036101000a031916815260200191505b50858103825287818151815260200191508051906020019080838360005b838110156111c05780820151818401526020810190506111a5565b50505050905090810190601f1680156111ed5780820380516001836020036101000a031916815260200191505b509a505050505050505050505060405180910390f35b34801561120f57600080fd5b50611264600480360381019080803573ffffffffffffffffffffffffffffffffffffffff169060200190929190803573ffffffffffffffffffffffffffffffffffffffff169060200190929190505050612803565b604051808215151515815260200191505060405180910390f35b34801561128a57600080fd5b506112bf600480360381019080803573ffffffffffffffffffffffffffffffffffffffff169060200190929190505050612897565b005b3480156112cd57600080fd5b506112f960048036038101908080359060200190929190803560ff1690602001909291905050506128b6565b005b6000806000837bffffffffffffffffffffffffffffffffffffffffffffffffffffffff19167bffffffffffffffffffffffffffffffffffffffffffffffffffffffff1916815260200190815260200160002060009054906101000a900460ff169050919050565b600080611370858585612477565b915061137c82876128c5565b9050600f60008273ffffffffffffffffffffffffffffffffffffffff1673ffffffffffffffffffffffffffffffffffffffff1681526020019081526020016000205483141515611434576040517f08c379a000000000000000000000000000000000000000000000000000000000815260040180806020018281038252600e8152602001807f6e6f6e6365206d69736d6174636800000000000000000000000000000000000081525060200191505060405180910390fd5b600f60008273ffffffffffffffffffffffffffffffffffffffff1673ffffffffffffffffffffffffffffffffffffffff1681526020019081526020016000206000815480929190600101919050555061148e818686612a6e565b505050505050565b606060098054600181600116156101000203166002900480601f01602080910402602001604051908101604052809291908181526020018280546001816001161561010002031660029004801561152e5780601f106115035761010080835404028352916020019161152e565b820191906000526020600020905b81548152906001019060200180831161151157829003601f168201915b5050505050905090565b600061154382612c82565b151561154e57600080fd5b6002600083815260200190815260200160002060009054906101000a900473ffffffffffffffffffffffffffffffffffffffff169050919050565b600060606000808686866040516020018084805190602001908083835b6020831015156115cb57805182526020820191506020810190506020830392506115a6565b6001836020036101000a03801982511681845116808217855250505050505090500183805190602001908083835b60208310151561161e57805182526020820191506020810190506020830392506115f9565b6001836020036101000a03801982511681845116808217855250505050505090500182805190602001908083835b602083101515611671578051825260208201915060208101905060208303925061164c565b6001836020036101000a03801982511681845116808217855250505050505090500193505050506040516020818303038152906040529250826040518082805190602001908083835b6020831015156116df57805182526020820191506020810190506020830392506116ba565b6001836020036101000a03801982511681845116808217855250505050505090500191505060405180910390209150816001900490508093505050509392505050565b600061172d82611f2d565b90508073ffffffffffffffffffffffffffffffffffffffff168373ffffffffffffffffffffffffffffffffffffffff161415151561176a57600080fd5b8073ffffffffffffffffffffffffffffffffffffffff163373ffffffffffffffffffffffffffffffffffffffff1614806117aa57506117a98133612803565b5b15156117b557600080fd5b826002600084815260200190815260200160002060006101000a81548173ffffffffffffffffffffffffffffffffffffffff021916908373ffffffffffffffffffffffffffffffffffffffff160217905550818373ffffffffffffffffffffffffffffffffffffffff168273ffffffffffffffffffffffffffffffffffffffff167f8c5be1e5ebec7d5bd14f71427d1e84f3dd0314c0f7b2291e5b200ac8c7c3b92560405160405180910390a4505050565b606080606060006060600080600e600089815260200190815260200160002090508060020181600301826004018360000160009054906101000a900460ff16846001018c858054600181600116156101000203166002900480601f0160208091040260200160405190810160405280929190818152602001828054600181600116156101000203166002900480156119405780601f1061191557610100808354040283529160200191611940565b820191906000526020600020905b81548152906001019060200180831161192357829003601f168201915b50505050509550848054600181600116156101000203166002900480601f0160208091040260200160405190810160405280929190818152602001828054600181600116156101000203166002900480156119dc5780601f106119b1576101008083540402835291602001916119dc565b820191906000526020600020905b8154815290600101906020018083116119bf57829003601f168201915b50505050509450838054600181600116156101000203166002900480601f016020809104026020016040519081016040528092919081815260200182805460018160011615610100020316600290048015611a785780601f10611a4d57610100808354040283529160200191611a78565b820191906000526020600020905b815481529060010190602001808311611a5b57829003601f168201915b505050505093508260ff169250818054600181600116156101000203166002900480601f016020809104026020016040519081016040528092919081815260200182805460018160011615610100020316600290048015611b1a5780601f10611aef57610100808354040283529160200191611b1a565b820191906000526020600020905b815481529060010190602001808311611afd57829003601f168201915b505050505091509650965096509650965096505091939550919395565b6000611b41613818565b600d543410151515611bbb576040517f08c379a000000000000000000000000000000000000000000000000000000000815260040180806020018281038252601e8152602001807f416d6f756e74206f662045746865722073656e7420746f6f20736d616c6c000081525060200191505060405180910390fd5b611bc6878787611589565b9150611bd28383612cf4565b60a060405190810160405280600060ff16815260200185815260200188815260200187815260200186815250905080600e600084815260200190815260200160002060008201518160000160006101000a81548160ff021916908360ff1602179055506020820151816001019080519060200190611c5192919061384b565b506040820151816002019080519060200190611c6e92919061384b565b506060820151816003019080519060200190611c8b92919061384b565b506080820151816004019080519060200190611ca892919061384b565b509050508273ffffffffffffffffffffffffffffffffffffffff167f759bfa869f6fdff899bc9c33192f8cd4dd448a5ee0b8e14e03bfbf482de825f2836040518082815260200191505060405180910390a250505050505050565b6000600780549050905090565b611d1a3382612d4b565b1515611d2557600080fd5b600073ffffffffffffffffffffffffffffffffffffffff168273ffffffffffffffffffffffffffffffffffffffff1614151515611d6157600080fd5b611d6b8382612de0565b611d758382612ee3565b611d7f828261309f565b808273ffffffffffffffffffffffffffffffffffffffff168473ffffffffffffffffffffffffffffffffffffffff167fddf252ad1be2c89b69c2b068fc378daa952ba7f163c4a11628f55a4df523b3ef60405160405180910390a4505050565b6000611dea83611fc3565b82101515611df757600080fd5b600560008473ffffffffffffffffffffffffffffffffffffffff1673ffffffffffffffffffffffffffffffffffffffff16815260200190815260200160002082815481101515611e4357fe5b9060005260206000200154905092915050565b611e7283838360206040519081016040528060008152506125a7565b505050565b6000600d54905090565b6000611e8b611d03565b82101515611e9857600080fd5b600782815481101515611ea757fe5b90600052602060002001549050919050565b611ec1612145565b1515611ecc57600080fd5b8073ffffffffffffffffffffffffffffffffffffffff166108fc3073ffffffffffffffffffffffffffffffffffffffff16319081150290604051600060405180830381858888f19350505050158015611f29573d6000803e3d6000fd5b5050565b6000806001600084815260200190815260200160002060009054906101000a900473ffffffffffffffffffffffffffffffffffffffff169050600073ffffffffffffffffffffffffffffffffffffffff168173ffffffffffffffffffffffffffffffffffffffff1614151515611fa257600080fd5b80915050919050565b600f6020528060005260406000206000915090505481565b60008073ffffffffffffffffffffffffffffffffffffffff168273ffffffffffffffffffffffffffffffffffffffff161415151561200057600080fd5b600360008373ffffffffffffffffffffffffffffffffffffffff1673ffffffffffffffffffffffffffffffffffffffff168152602001908152602001600020549050919050565b61204f612145565b151561205a57600080fd5b600073ffffffffffffffffffffffffffffffffffffffff16600c60009054906101000a900473ffffffffffffffffffffffffffffffffffffffff1673ffffffffffffffffffffffffffffffffffffffff167f8be0079c531659141344cd1fd0a4f28419497f9722a3daafe3b4186f6b6457e060405160405180910390a36000600c60006101000a81548173ffffffffffffffffffffffffffffffffffffffff021916908373ffffffffffffffffffffffffffffffffffffffff160217905550565b6000600c60009054906101000a900473ffffffffffffffffffffffffffffffffffffffff16905090565b6000600c60009054906101000a900473ffffffffffffffffffffffffffffffffffffffff1673ffffffffffffffffffffffffffffffffffffffff163373ffffffffffffffffffffffffffffffffffffffff1614905090565b6060600a8054600181600116156101000203166002900480601f0160208091040260200160405190810160405280929190818152602001828054600181600116156101000203166002900480156122355780601f1061220a57610100808354040283529160200191612235565b820191906000526020600020905b81548152906001019060200180831161221857829003601f168201915b5050505050905090565b612247612145565b151561225257600080fd5b80600d8190555050565b61233188888080601f01602080910402602001604051908101604052809392919081815260200183838082843782019150505050505087878080601f01602080910402602001604051908101604052809392919081815260200183838082843782019150505050505086868080601f01602080910402602001604051908101604052809392919081815260200183838082843782019150505050505085858080601f01602080910402602001604051908101604052809392919081815260200183838082843782019150505050505033611b37565b5050505050505050565b3373ffffffffffffffffffffffffffffffffffffffff168273ffffffffffffffffffffffffffffffffffffffff161415151561237657600080fd5b80600460003373ffffffffffffffffffffffffffffffffffffffff1673ffffffffffffffffffffffffffffffffffffffff16815260200190815260200160002060008473ffffffffffffffffffffffffffffffffffffffff1673ffffffffffffffffffffffffffffffffffffffff16815260200190815260200160002060006101000a81548160ff0219169083151502179055508173ffffffffffffffffffffffffffffffffffffffff163373ffffffffffffffffffffffffffffffffffffffff167f17307eab39ab6107e8899845ad3d59bd9653f200f220920489ca2b5937696c3183604051808215151515815260200191505060405180910390a35050565b600030848484604051602001808573ffffffffffffffffffffffffffffffffffffffff1673ffffffffffffffffffffffffffffffffffffffff166c01000000000000000000000000028152601401807f6d65746155706461746553746174650000000000000000000000000000000000815250600f018481526020018360ff1660ff167f01000000000000000000000000000000000000000000000000000000000000000281526001018281526020019450505050506040516020818303038152906040526040518082805190602001908083835b602083101515612571578051825260208201915060208101905060208303925061254c565b6001836020036101000a038019825116818451168082178552505050505050905001915050604051809103902090509392505050565b6125b2848484611d10565b6125be84848484613176565b15156125c957600080fd5b50505050565b60606125da82612c82565b15156125e557600080fd5b600b60008381526020019081526020016000208054600181600116156101000203166002900480601f01602080910402602001604051908101604052809291908181526020018280546001816001161561010002031660029004801561268c5780601f106126615761010080835404028352916020019161268c565b820191906000526020600020905b81548152906001019060200180831161266f57829003601f168201915b50505050509050919050565b6060600560008373ffffffffffffffffffffffffffffffffffffffff1673ffffffffffffffffffffffffffffffffffffffff16815260200190815260200160002080548060200260200160405190810160405280929190818152602001828054801561272357602002820191906000526020600020905b81548152602001906001019080831161270f575b50505050509050919050565b6060806060600060606000806127dc8d8d8080601f0160208091040260200160405190810160405280939291908181526020018383808284378201915050505050508c8c8080601f0160208091040260200160405190810160405280939291908181526020018383808284378201915050505050508b8b8080601f016020809104026020016040519081016040528093929190818152602001838380828437820191505050505050611589565b90506127e781611867565b9650965096509650965096505096509650965096509650969050565b6000600460008473ffffffffffffffffffffffffffffffffffffffff1673ffffffffffffffffffffffffffffffffffffffff16815260200190815260200160002060008373ffffffffffffffffffffffffffffffffffffffff1673ffffffffffffffffffffffffffffffffffffffff16815260200190815260200160002060009054906101000a900460ff16905092915050565b61289f612145565b15156128aa57600080fd5b6128b381613398565b50565b6128c1338383612a6e565b5050565b600080600080604185511415156128df5760009350612a65565b6020850151925060408501519150606085015160001a9050601b8160ff16101561290a57601b810190505b601b8160ff16141580156129225750601c8160ff1614155b156129305760009350612a65565b60018660405160200180807f19457468657265756d205369676e6564204d6573736167653a0a333200000000815250601c0182600019166000191681526020019150506040516020818303038152906040526040518082805190602001908083835b6020831015156129b75780518252602082019150602081019050602083039250612992565b6001836020036101000a0380198251168184511680821785525050505050509050019150506040518091039020828585604051600081526020016040526040518085600019166000191681526020018460ff1660ff1681526020018360001916600019168152602001826000191660001916815260200194505050505060206040516020810390808403906000865af1158015612a58573d6000803e3d6000fd5b5050506020604051035193505b50505092915050565b600060038260ff16101515612aeb576040517f08c379a00000000000000000000000000000000000000000000000000000000081526004018080602001828103825260198152602001807f6f6e6c792073746174657320302c312c3220616c6c6f7765640000000000000081525060200191505060405180910390fd5b612af483612c82565b1515612b68576040517f08c379a00000000000000000000000000000000000000000000000000000000081526004018080602001828103825260148152602001807f746f6b656e20646f6573206e6f7420657869737400000000000000000000000081525060200191505060405180910390fd5b8373ffffffffffffffffffffffffffffffffffffffff16612b8884611f2d565b73ffffffffffffffffffffffffffffffffffffffff16141515612c13576040517f08c379a000000000000000000000000000000000000000000000000000000000815260040180806020018281038252600d8152602001807f6e6f7420746865206f776e65720000000000000000000000000000000000000081525060200191505060405180910390fd5b600e60008481526020019081526020016000209050818160000160006101000a81548160ff021916908360ff1602179055507f338ba04f9156b28bf628c701da0005a03bc76af59b37f1211027a34161eaec07836040518082815260200191505060405180910390a150505050565b6000806001600084815260200190815260200160002060009054906101000a900473ffffffffffffffffffffffffffffffffffffffff169050600073ffffffffffffffffffffffffffffffffffffffff168173ffffffffffffffffffffffffffffffffffffffff161415915050919050565b612cfe8282613494565b600780549050600860008381526020019081526020016000208190555060078190806001815401808255809150509060018203906000526020600020016000909192909190915055505050565b600080612d5783611f2d565b90508073ffffffffffffffffffffffffffffffffffffffff168473ffffffffffffffffffffffffffffffffffffffff161480612dc657508373ffffffffffffffffffffffffffffffffffffffff16612dae84611538565b73ffffffffffffffffffffffffffffffffffffffff16145b80612dd75750612dd68185612803565b5b91505092915050565b8173ffffffffffffffffffffffffffffffffffffffff16612e0082611f2d565b73ffffffffffffffffffffffffffffffffffffffff16141515612e2257600080fd5b600073ffffffffffffffffffffffffffffffffffffffff166002600083815260200190815260200160002060009054906101000a900473ffffffffffffffffffffffffffffffffffffffff1673ffffffffffffffffffffffffffffffffffffffff16141515612edf5760006002600083815260200190815260200160002060006101000a81548173ffffffffffffffffffffffffffffffffffffffff021916908373ffffffffffffffffffffffffffffffffffffffff1602179055505b5050565b6000806000612ef2858561353a565b60066000858152602001908152602001600020549250612f5e6001600560008873ffffffffffffffffffffffffffffffffffffffff1673ffffffffffffffffffffffffffffffffffffffff1681526020019081526020016000208054905061366990919063ffffffff16565b9150600560008673ffffffffffffffffffffffffffffffffffffffff1673ffffffffffffffffffffffffffffffffffffffff16815260200190815260200160002082815481101515612fac57fe5b9060005260206000200154905080600560008773ffffffffffffffffffffffffffffffffffffffff1673ffffffffffffffffffffffffffffffffffffffff1681526020019081526020016000208481548110151561300657fe5b9060005260206000200181905550600560008673ffffffffffffffffffffffffffffffffffffffff1673ffffffffffffffffffffffffffffffffffffffff16815260200190815260200160002080548091906001900361306691906138cb565b50600060066000868152602001908152602001600020819055508260066000838152602001908152602001600020819055505050505050565b60006130ab838361368a565b600560008473ffffffffffffffffffffffffffffffffffffffff1673ffffffffffffffffffffffffffffffffffffffff168152602001908152602001600020805490509050600560008473ffffffffffffffffffffffffffffffffffffffff1673ffffffffffffffffffffffffffffffffffffffff168152602001908152602001600020829080600181540180825580915050906001820390600052602060002001600090919290919091505550806006600084815260200190815260200160002081905550505050565b6000806131988573ffffffffffffffffffffffffffffffffffffffff166137e4565b15156131a7576001915061338f565b8473ffffffffffffffffffffffffffffffffffffffff1663150b7a02338887876040518563ffffffff167c0100000000000000000000000000000000000000000000000000000000028152600401808573ffffffffffffffffffffffffffffffffffffffff1673ffffffffffffffffffffffffffffffffffffffff1681526020018473ffffffffffffffffffffffffffffffffffffffff1673ffffffffffffffffffffffffffffffffffffffff16815260200183815260200180602001828103825283818151815260200191508051906020019080838360005b8381101561329c578082015181840152602081019050613281565b50505050905090810190601f1680156132c95780820380516001836020036101000a031916815260200191505b5095505050505050602060405180830381600087803b1580156132eb57600080fd5b505af11580156132ff573d6000803e3d6000fd5b505050506040513d602081101561331557600080fd5b8101908080519060200190929190505050905063150b7a027c0100000000000000000000000000000000000000000000000000000000027bffffffffffffffffffffffffffffffffffffffffffffffffffffffff1916817bffffffffffffffffffffffffffffffffffffffffffffffffffffffff19161491505b50949350505050565b600073ffffffffffffffffffffffffffffffffffffffff168173ffffffffffffffffffffffffffffffffffffffff16141515156133d457600080fd5b8073ffffffffffffffffffffffffffffffffffffffff16600c60009054906101000a900473ffffffffffffffffffffffffffffffffffffffff1673ffffffffffffffffffffffffffffffffffffffff167f8be0079c531659141344cd1fd0a4f28419497f9722a3daafe3b4186f6b6457e060405160405180910390a380600c60006101000a81548173ffffffffffffffffffffffffffffffffffffffff021916908373ffffffffffffffffffffffffffffffffffffffff16021790555050565b600073ffffffffffffffffffffffffffffffffffffffff168273ffffffffffffffffffffffffffffffffffffffff16141515156134d057600080fd5b6134da828261309f565b808273ffffffffffffffffffffffffffffffffffffffff16600073ffffffffffffffffffffffffffffffffffffffff167fddf252ad1be2c89b69c2b068fc378daa952ba7f163c4a11628f55a4df523b3ef60405160405180910390a45050565b8173ffffffffffffffffffffffffffffffffffffffff1661355a82611f2d565b73ffffffffffffffffffffffffffffffffffffffff1614151561357c57600080fd5b6135cf6001600360008573ffffffffffffffffffffffffffffffffffffffff1673ffffffffffffffffffffffffffffffffffffffff1681526020019081526020016000205461366990919063ffffffff16565b600360008473ffffffffffffffffffffffffffffffffffffffff1673ffffffffffffffffffffffffffffffffffffffff1681526020019081526020016000208190555060006001600083815260200190815260200160002060006101000a81548173ffffffffffffffffffffffffffffffffffffffff021916908373ffffffffffffffffffffffffffffffffffffffff1602179055505050565b60008083831115151561367b57600080fd5b82840390508091505092915050565b600073ffffffffffffffffffffffffffffffffffffffff166001600083815260200190815260200160002060009054906101000a900473ffffffffffffffffffffffffffffffffffffffff1673ffffffffffffffffffffffffffffffffffffffff161415156136f857600080fd5b816001600083815260200190815260200160002060006101000a81548173ffffffffffffffffffffffffffffffffffffffff021916908373ffffffffffffffffffffffffffffffffffffffff16021790555061379d6001600360008573ffffffffffffffffffffffffffffffffffffffff1673ffffffffffffffffffffffffffffffffffffffff168152602001908152602001600020546137f790919063ffffffff16565b600360008473ffffffffffffffffffffffffffffffffffffffff1673ffffffffffffffffffffffffffffffffffffffff168152602001908152602001600020819055505050565b600080823b905060008111915050919050565b600080828401905083811015151561380e57600080fd5b8091505092915050565b60a060405190810160405280600060ff168152602001606081526020016060815260200160608152602001606081525090565b828054600181600116156101000203166002900490600052602060002090601f016020900481019282601f1061388c57805160ff19168380011785556138ba565b828001600101855582156138ba579182015b828111156138b957825182559160200191906001019061389e565b5b5090506138c791906138f7565b5090565b8154818355818111156138f2578183600052602060002091820191016138f191906138f7565b5b505050565b61391991905b808211156139155760008160009055506001016138fd565b5090565b905600a165627a7a7230582039cbfe6b09b12f15f35cef169715f8456fddababe8b50759d84855ec1aea87010029",
  "source": "pragma solidity ^0.4.24;\n\nimport \"openzeppelin-solidity/contracts/ownership/Ownable.sol\";\nimport \"./MyERC721Enumerable.sol\";\nimport \"openzeppelin-solidity/contracts/token/ERC721/ERC721Metadata.sol\";\n\ncontract BicycleRegistry is MyERC721Enumerable, ERC721Metadata, Ownable {\n\n    /*** EVENTS ***/\n    event BicycleRegisterd(address indexed owner, uint256 tokenId);\n    event BicycleStateChanged(uint256 tokenId);\n\n    /// Price set by contract owner for each token in Wei.\n    uint256 currentRegistrationPrice = 3000000000000000;\n\n    struct Bicycle {\n        //allowed states are \n        // 0 - ok\n        // 1 - stolen\n        // 2 - lost\n        uint8 state;\n        string ipfsImageHash;\n\n        string vendor;\n        string serialNumber;\n        string frameNumber;\n    }\n    mapping (uint256 => Bicycle) bicycles;\n\n    constructor() ERC721Metadata(\"KETTE Bicycle Registry\", \"KET\") public {}\n\n    /// @notice registers a bicycle token with the given parameters for the caller of the function\n    /// and requires the caller to send currentRegistrationPrice (ETH) along with the transaction\n    /// @dev there are intentionally no checks for validity of the string parameters.\n    /// there is no advantages to register a bike token with invalid value. \n    /// @param _vendor the vendor of the bicycle. e.g.: Hercules or Carver\n    /// @param _serialNumber the serial number of the bicycle\n    /// @param _frameNumber the frame number of the bicycle\n    /// @param _ipfsImageHash multihash of an image of the bicycle on the ipfs\n    function registerBicycle (\n        string _vendor,\n        string _serialNumber,\n        string _frameNumber,\n        string _ipfsImageHash\n  ) external payable {\n        registerBicycleFor(_vendor,_serialNumber,_frameNumber,_ipfsImageHash, msg.sender);\n    }\n\n    /// @notice registers a bicycle token with the given parameters for a specified account\n    /// and requires the caller to send currentRegistrationPrice (ETH) along with the transaction\n    /// @dev there are intentionally no checks for validity of the string parameters.\n    /// there is no advantages to register a bike token with invalid value. \n    /// @param _vendor the vendor of the bicycle. e.g.: Hercules or Carver\n    /// @param _serialNumber the serial number of the bicycle\n    /// @param _frameNumber the frame number of the bicycle\n    /// @param _ipfsImageHash multihash of an image of the bicycle on the ipfs\n    /// @param _for address of the account the bicycle token should be registered for\n    function registerBicycleFor (\n        string _vendor,\n        string _serialNumber,\n        string _frameNumber,\n        string _ipfsImageHash,\n        address _for\n  ) public payable {\n        require(msg.value >= currentRegistrationPrice, \"Amount of Ether sent too small\");\n        uint256 uniqueId = computeUniqueId(_vendor,_serialNumber,_frameNumber);\n        _mint(_for, uniqueId);\n\n        Bicycle memory bicycle = Bicycle({\n            state: 0,\n            ipfsImageHash: _ipfsImageHash,\n            vendor: _vendor,\n            serialNumber: _serialNumber,\n            frameNumber: _frameNumber\n        });\n\n        bicycles[uniqueId] = bicycle;\n        emit BicycleRegisterd(_for, uniqueId);\n    }\n\n    /// @notice computes a unique ID given the three parameters\n    /// @param _vendor the vendor of the bicycle. e.g.: Hercules or Carver\n    /// @param _serialNumber the serial number of the bicycle\n    /// @param _frameNumber the frame number of the bicycle\n    function computeUniqueId(string _vendor,string _serialNumber,string _frameNumber) public pure returns (uint256) {\n        bytes memory packed = abi.encodePacked(_vendor,_serialNumber,_frameNumber);\n        bytes32 hashed = keccak256(packed);\n        uint256 uniqueId = uint256(hashed);\n        return uniqueId;\n    }\n\n    /// @notice Returns all bicycle information\n    /// @param _vendor the vendor of the bicycle. e.g.: Hercules or Carver\n    /// @param _serialNumber the serial number of the bicycle\n    /// @param _frameNumber the frame number of the bicycle\n    function lookUpBicycle(string _vendor,string _serialNumber,string _frameNumber) \n    external view \n    returns (string vendor_, string serialNumber_, string frameNumber_, int state_, string ipfsImageHash_, uint256 uniqueId_) {\n        uint256 uniqueId = computeUniqueId(_vendor,_serialNumber,_frameNumber);\n        return getBicycle(uniqueId);\n    }\n\n    /// @notice Returns all bicycle information\n    /// @param _uniqueId the ID of the token that represents the bicycle\n    function getBicycle(uint256 _uniqueId) public view \n    returns (string vendor_, string serialNumber_, string frameNumber_, int state_, string ipfsImageHash_, uint256 uniqueId_) {\n        Bicycle storage bike = bicycles[_uniqueId];\n        return (bike.vendor, bike.serialNumber, bike.frameNumber, bike.state, bike.ipfsImageHash, _uniqueId);\n    }\n\n    /// @notice Allows the owner of this contract to set the currentRegistrationPrice for each token\n    function setCurrentRegistrationPrice(uint256 newPrice) public onlyOwner {\n        currentRegistrationPrice = newPrice;\n    }\n\n    /// @notice Returns the currentRegistrationPrice for each token\n    function getCurrentRegistrationPrice() external view returns (uint256) {\n        return currentRegistrationPrice;\n    }\n\n    /// @notice Lets you withdraw all the contracts funds\n    /// @param _to account the withdraw should go to\n    function withdraw(address _to) external onlyOwner {\n        _to.transfer(address(this).balance);\n    }\n\n    /// @notice Updates the state of a registerd bicycle.\n    /// valid states are: 0 = ok, 1 = stolen, 2 = lost\n    /// @param uniqueId the id of the bicycle to update\n    /// @param newState the new state to set (range(0,2))\n    function updateState(uint256 uniqueId, uint8 newState) public {\n        _updateState(msg.sender, uniqueId, newState);\n    }\n\n    /// @notice Updates the state of a registerd bicycle.\n    /// valid states are: 0 = ok, 1 = stolen, 2 = lost\n    /// @param owner the owner of the bike updating the state\n    /// @param uniqueId the id of the bicycle to update\n    /// @param newState the new state to set (range(0,2))\n    function _updateState(address owner, uint256 uniqueId, uint8 newState) private {\n        require(newState < 3, \"only states 0,1,2 allowed\");\n        require(_exists(uniqueId), \"token does not exist\");\n        require(ownerOf(uniqueId) == owner, \"not the owner\");\n        Bicycle storage bicycle = bicycles[uniqueId];\n        bicycle.state = newState;\n        emit BicycleStateChanged(uniqueId);\n    }\n\n    mapping (address => uint256) public replayNonce;\n    \n    /// @notice Updates the state of a registerd bicycle.\n    /// valid states are: 0 = ok, 1 = stolen, 2 = lost\n    /// @param signature signature of the bike owner\n    /// @param uniqueId the id of the bicycle to update\n    /// @param newState the new state to set (range(0,2))\n    function metaUpdateState(bytes signature, uint256 uniqueId, uint8 newState, uint256 nonce) public {\n        bytes32 metaHash = metaUpdateStateHash(uniqueId, newState, nonce);\n        address signer = getSigner(metaHash,signature);\n        require(nonce == replayNonce[signer], \"nonce mismatch\");\n        replayNonce[signer]++;\n        _updateState(signer, uniqueId, newState);\n    }\n\n    /// @notice Returns a hash for a function call of metaUpdateState with the given parameters\n    function metaUpdateStateHash(uint256 uniqueId, uint8 newState, uint256 nonce) public view returns(bytes32){\n        return keccak256(abi.encodePacked(address(this),\"metaUpdateState\", uniqueId, newState, nonce));\n    }\n\n    /// @dev will return a different address then the signers when _hash and _signature do not match\n    function getSigner(bytes32 _hash, bytes _signature) internal pure returns (address){\n        bytes32 r;\n        bytes32 s;\n        uint8 v;\n        if (_signature.length != 65) {\n            return address(0);\n        }\n        assembly {\n            r := mload(add(_signature, 32))\n            s := mload(add(_signature, 64))\n            v := byte(0, mload(add(_signature, 96)))\n        }\n        if (v < 27) {\n            v += 27;\n        }\n        if (v != 27 && v != 28) {\n            return address(0);\n        } else {\n            return ecrecover(keccak256(abi.encodePacked(\"\\x19Ethereum Signed Message:\\n32\", _hash)), v, r, s);\n        }\n    }\n}\n",
  "sourcePath": "/Users/hannes/Data/Projects/kette/nft-asset-registry-smart-contracts/contracts/BicycleRegistry.sol",
  "compiler": {
    "name": "solc",
    "version": "0.4.24+commit.e67f0147.Emscripten.clang"
  },
  "schemaVersion": "3.0.9",
  "updatedAt": "2019-05-13T20:17:37.521Z"
}